:100000000C9434000C9451000C9451000C94C502D3
:100010000C9451000C9451000C9451000C9451001C
:100020000C9451000C9451000C9451000C9418083D
:100030000C9451000C9451000C9451000C945100FC
:100040000C9451000C9451000C94F3030C9438045C
:100050000C9451000C9451000C9451000C945100DC
:100060000C9451000C94510011241FBECFEFD8E026
:10007000DEBFCDBF11E0A0E0B1E0E0EAF4E302C0F2
:1000800005900D92A03AB107D9F728E0A0EAB1E0B7
:1000900001C01D92A03BB207E1F70E9489040C94B5
:1000A0004E1A0C940000CF93DF93CDB7DEB788E2F1
:1000B00090E020910701FC0120830E94B70243E0F9
:1000C00060E081E00E94110A90937C0880937B0895
:1000D00080917B0890917C0862E671E00E94730E2B
:1000E00010927A08109279088AE290E02AE230E0D1
:1000F000F90120812860FC01208380EB90E023E25D
:10010000FC01208381EB90E022E0FC01208384EB62
:1001100090E02FEFFC01208388E690E028E630E0B5
:10012000F90120812160FC0120838BE690E02BE621
:1001300030E0F90120812760FC012083DF91CF911D
:100140000895AF92BF92CF92DF92EF92FF920F93FA
:10015000CF93DF931F92CDB7DEB7898389818F5FFD
:10016000A12CB12CC12CD12CE12CF12C082F20E09A
:1001700030E04AEA50E062E771E081EE90E00E94F0
:10018000B90EA12CB12CC12CD12C0F2EF7E7EF2EDC
:10019000F8E0FF2EF02D098120E030E04AEA50E03F
:1001A00064E771E087E491E00E94B90E0F90DF915F
:1001B000CF910F91FF90EF90DF90CF90BF90AF90D5
:1001C0000895CF93DF9300D01F92CDB7DEB79B8306
:1001D0008A8380917B0890917C0820E04FEF5FEF4D
:1001E00060E070E00E948F0B882309F44FC089E221
:1001F00090E0FC018081807A898380910F018235B3
:1002000041F080910F01823721F080910F018337F7
:10021000C1F48981882F90E080729927009789F036
:1002200088E290E023E230E0F9012081222F30E0E3
:100230002770332720503F4FF9012081FC01208394
:1002400025C080910F018E3461F488E290E0209106
:100250000701FC01208384EB90E02FEFFC01208359
:1002600015C088E290E020910701FC01208384EB17
:1002700090E02FEFFC01208383E391E09093A808A6
:100280008093A7088EE480930F01A3CFA2CF0F9392
:100290001F93CF93DF9300D000D000D0CDB7DEB74F
:1002A0009E838D8381E090E09A83898380E090E053
:1002B0000E944D100E941E129C838B8380910F011F
:1002C000823709F0F6C084EB90E0FC0190818091C8
:1002D000A001891708F077C084EB90E0FC018081D1
:1002E000882F90E0AA2797FDA095BA2FBC01CD01D9
:1002F0000E940519DC01CB0120E030E0A901BC011E
:10030000CD010E94B51918160CF05DC084EB90E089
:10031000FC018081882F90E0AA2797FDA095BA2F35
:10032000BC01CD010E940519DC01CB0120E030E0C9
:100330004FE753E4BC01CD010E94D318882309F094
:1003400042C004EB10E08091790890917A08CC01CA
:10035000A0E0B0E0BC01CD010E940319DC01CB019B
:100360002091090130910A0140910B0150910C013B
:10037000BC01CD010E94B919DC01CB019C01AD018A
:1003800060E070E08FE793E40E946E18DC01CB011F
:10039000BC01CD010E94D718DC01CB01F80180839C
:1003A00080917B0890917C0820E040E050E060E084
:1003B00070E00E94720A29813A81CE010396B90148
:1003C0000E949F0F75C084EB90E0FC0190818091AA
:1003D000A001891708F050C084EB90E0FC018081F7
:1003E000882F90E0AA2797FDA095BA2FBC01CD01D8
:1003F0000E940519DC01CB0120E030E0A901BC011D
:10040000CD010E94B5191816BCF504EB10E08091DF
:10041000790890917A08CC01A0E0B0E0BC01CD0150
:100420000E940319DC01CB012091090130910A01DE
:1004300040910B0150910C01BC01CD010E94B919F2
:10044000DC01CB019C01AD0160E070E08FE793E43B
:100450000E946E18DC01CB01BC01CD010E94D718AF
:10046000DC01CB01F801808329813A81CE0103961A
:10047000B9010E949F0F1CC084EB90E0FC019081A9
:100480008091A001981740F482E580930F0180E0ED
:1004900090E00E944D106AC084EB90E0FC018081E6
:1004A00082E580930F0180E090E00E944D105EC0D5
:1004B0005DC080910F01833709F058C084EB90E054
:1004C000FC018081882F90E0AA2797FDA095BA2F84
:1004D000BC01CD010E940519DC01CB0120E030E018
:1004E0004FE753E4BC01CD010E94B519882344F0C5
:1004F0008EE480930F0180E090E00E944D1036C0A2
:1005000004EB10E08091790890917A08CC01A0E08A
:10051000B0E0BC01CD010E940319DC01CB012091A8
:10052000090130910A0140910B0150910C01BC016D
:10053000CD010E94B919DC01CB0120E030E0A90116
:10054000BC01CD010E946F18DC01CB01BC01CD01C3
:100550000E94D718DC01CB01F801808329813A8100
:10056000CE010396B9010E949F0FA8CEA7CECF93CC
:10057000DF93CDB7DEB783E290E0FC018081877026
:1005800080930801DF91CF9108951F920F92009000
:100590005F000F9211242F933F934F935F936F93BC
:1005A0007F938F939F93AF93BF93EF93FF93CF93DB
:1005B000DF9300D0CDB7DEB71A82198280910F0188
:1005C000882F90E021E08637920791F080917B0898
:1005D00090917C0820E0AE014F5F5F4F60E070E0DB
:1005E0000E94240B89819A81009711F00E94FC06D9
:1005F0000F900F90DF91CF91FF91EF91BF91AF914D
:100600009F918F917F916F915F914F913F912F912A
:100610000F9000925F000F901F901895CF93DF937B
:10062000CDB7DEB72E970FB6F894DEBF0FBECDBFA5
:100630006E837F83888799874A870FB6F8940F92D5
:1006400040E061E08A850E94110A9093A2018093A4
:10065000A10140E061E08A850E94110A9093A40103
:100660008093A3018091A1019091A20168E771E0BC
:100670000E94730E8091A3019091A40166E871E03D
:100680000E94730E8E819F81A885B985880F991F5E
:10069000AA1FBB1F880F991FAA1FBB1F880F991F76
:1006A000AA1FBB1F880F991FAA1FBB1F9C01AD016A
:1006B00080E094E2A4EFB0E0BC01CD010E941C1ADE
:1006C000DA01C9010197A109B10989839A83AB8332
:1006D000BC8389818D8384EC90E02D81FC01208393
:1006E00089819A81AB81BC81892F9A2FAB2FBB273F
:1006F00089839A83AB83BC8389818D8385EC90E069
:100700002D81FC01208382EC90E026E0FC01208317
:1007100081EC90E028E9FC0120830F900FBE80E07F
:1007200090E02E960FB6F894DEBF0FBECDBFDF91DE
:10073000CF910895CF93DF9300D000D000D0CDB7F4
:10074000DEB79A8389837C836B835E834D8380913C
:10075000A1019091A2014D815E816B817C8120E09D
:100760000E948F0B882311F081E001C080E0269663
:100770000FB6F894DEBF0FBECDBFDF91CF910895C5
:10078000CF93DF9300D000D000D0CDB7DEB79B83EE
:100790008A836C835E834D838091A3019091A40131
:1007A0004D815E81BE016C5F7F4F20E00E94720A26
:1007B000813011F080E00EC081EC90E0FC0180817E
:1007C000898389818062898381EC90E02981FC01A1
:1007D000208381E026960FB6F894DEBF0FBECDBF12
:1007E000DF91CF9108951F920F9200905F000F92BA
:1007F00011242F933F934F935F936F937F938F9326
:100800009F93AF93BF93EF93FF93CF93DF9300D06A
:10081000CDB7DEB71A8286EC90E0FC018081898337
:100820008091A1019091A201AE014E5F5F4F20E047
:10083000BE016F5F7F4F0E94240B8A81882311F0D5
:100840000E94FC060F900F90DF91CF91FF91EF91E6
:10085000BF91AF919F918F917F916F915F914F91D8
:100860003F912F910F9000925F000F901F9018956D
:100870001F920F9200905F000F9211242F933F93CD
:100880004F935F936F937F938F939F93AF93BF9398
:10089000EF93FF93CF93DF9300D01F92CDB7DEB7D6
:1008A0008091A3019091A401AE014D5F5F4F9E0125
:1008B0002E5F3F4FB9010E945E0C813031F486EC0F
:1008C00090E02A81FC0120830DC081EC90E0FC01C6
:1008D0008081898389818F7D898381EC90E0298162
:1008E000FC0120830F900F900F90DF91CF91FF912B
:1008F000EF91BF91AF919F918F917F916F915F9198
:100900004F913F912F910F9000925F000F901F9099
:100910001895CF93DF93CDB7DEB70E94E3160E9400
:10092000530086E190E09093A8088093A70881E0A7
:100930000E94741682E00E94A10024E140E855E282
:1009400060E070E081E00E9477170E94491180E02A
:1009500090E0DF91CF910895CF93DF93CDB7DEB7CD
:100960008091790890917A08019690937A08809303
:100970007908DF91CF910895CF93DF9300D000D015
:10098000CDB7DEB79C838B831A8219820E948411B3
:1009900080911A0890911B08009731F486EA91E043
:1009A00090931B0880931A08209118083091190819
:1009B0008B819C81820F931F823726E0920738F546
:1009C00020911808309119088B819C81280F391FBC
:1009D000809118089091190882179307C0F420910C
:1009E0001A0830911B088091180890911908820FFD
:1009F000931F9A83898320911808309119088B815D
:100A00009C81820F931F90931908809318080E946D
:100A1000901189819A810F900F900F900F90DF9124
:100A2000CF910895CF93DF9300D0CDB7DEB79A83EF
:100A300089830F900F90DF91CF910895CF93DF932B
:100A4000CDB7DEB728970FB6F894DEBF0FBECDBF87
:100A50009C838B837E836D8358874F838B819C819E
:100A600021E1FC0120838B819C8101979C838B83F6
:100A70008B819C8122E2FC0120838B819C810197E8
:100A80009C838B838B819C8123E3FC0120838B815E
:100A90009C8101979C838B838D819E819A8389831E
:100AA00029818B819C81FC0120838B819C81019712
:100AB0009C838B8389819A81892F99279A83898343
:100AC00029818B819C81FC0120838B819C810197F2
:100AD0009C838B838B819C81FC0110828B819C8108
:100AE00001979C838B838B819C8120E8FC01208370
:100AF0008B819C8101979C838B838B819C81FC01E2
:100B000010828B819C8101979C838B838B819C813C
:100B100022E0FC0120838B819C8101979C838B8345
:100B20008B819C8123E0FC0120838B819C81019738
:100B30009C838B838B819C8124E0FC0120838B81AF
:100B40009C8101979C838B838B819C8125E0FC0198
:100B500020838B819C8101979C838B838B819C81DB
:100B600026E0FC0120838B819C8101979C838B83F1
:100B70008B819C8127E0FC0120838B819C810197E4
:100B80009C838B838B819C8128E0FC0120838B815B
:100B90009C8101979C838B838B819C8129E0FC0144
:100BA00020838B819C8101979C838B838B819C818B
:100BB00020E1FC0120838B819C8101979C838B83A6
:100BC0008B819C8121E1FC0120838B819C81019799
:100BD0009C838B838B819C8122E1FC0120838B8110
:100BE0009C8101979C838B838B819C8123E1FC01F9
:100BF00020838B819C8101979C838B838B819C813B
:100C000024E1FC0120838B819C8101979C838B8351
:100C10008B819C8125E1FC0120838B819C81019744
:100C20009C838B838B819C8126E1FC0120838B81BB
:100C30009C8101979C838B838B819C8127E1FC01A4
:100C400020838B819C8101979C838B838B819C81EA
:100C500028E1FC0120838B819C8101979C838B83FD
:100C60008B819C8129E1FC0120838B819C810197F0
:100C70009C838B838B819C8120E2FC0120838B8170
:100C80009C8101979C838B838B819C8121E2FC0159
:100C900020838B819C8101979C838B838B819C819A
:100CA00022E2FC0120838B819C8101979C838B83B2
:100CB0008B819C8123E2FC0120838B819C810197A5
:100CC0009C838B838F8198859A83898329818B81EB
:100CD0009C81FC0120838B819C8101979C838B8369
:100CE00089819A81892F99279A83898329818B8188
:100CF0009C81FC0120838B819C8101979C838B8349
:100D00008B819C8126E2FC0120838B819C81019751
:100D10009C838B838B819C8127E2FC0120838B81C8
:100D20009C8101979C838B838B819C8128E2FC01B1
:100D300020838B819C8101979C838B838B819C81F9
:100D400029E2FC0120838B819C8101979C838B830A
:100D50008B819C8120E3FC0120838B819C81019706
:100D60009C838B838B819C8121E3FC0120838B817D
:100D70009C8101979C838B838B819C8128960FB6E5
:100D8000F894DEBF0FBECDBFDF91CF910895CF9312
:100D9000DF93CDB7DEB70E94B207A0911C08B091D7
:100DA0001D08CD91CDBFDD91DEBFFF91EF91DF91A9
:100DB000CF91BF91AF919F918F917F916F915F91F3
:100DC0004F913F912F911F910F91FF90EF90DF90E6
:100DD000CF90BF90AF909F908F907F906F905F90DB
:100DE0004F903F902F901F900F900FBE0F9008953F
:100DF00081E0DF91CF9108950F920FB6F8940F9292
:100E00001F9211242F923F924F925F926F927F9286
:100E10008F929F92AF92BF92CF92DF92EF92FF920A
:100E20000F931F932F933F934F935F936F937F93F2
:100E30008F939F93AF93BF93CF93DF93EF93FF93E2
:100E4000A0911C08B0911D080DB60D920EB60D9222
:100E50000E942B13A0911C08B0911D08CD91CDBF0D
:100E6000DD91DEBFFF91EF91DF91CF91BF91AF9107
:100E70009F918F917F916F915F914F913F912F91B2
:100E80001F910F91FF90EF90DF90CF90BF90AF90A8
:100E90009F908F907F906F905F904F903F902F909A
:100EA0001F900F900FBE0F9008950F920FB6F894F9
:100EB0000F921F9211242F923F924F925F926F9246
:100EC0007F928F929F92AF92BF92CF92DF92EF92DA
:100ED000FF920F931F932F933F934F935F936F93C3
:100EE0007F938F939F93AF93BF93CF93DF93EF93B2
:100EF000FF93A0911C08B0911D080DB60D920EB67F
:100F00000D920E943512882311F00E942B13A0919C
:100F10001C08B0911D08CD91CDBFDD91DEBFFF91C2
:100F2000EF91DF91CF91BF91AF919F918F917F9181
:100F30006F915F914F913F912F911F910F91FF9072
:100F4000EF90DF90CF90BF90AF909F908F907F9069
:100F50006F905F904F903F902F901F900F900FBE1B
:100F60000F900895CF93DF93CDB7DEB72A970FB6D2
:100F7000F894DEBF0FBECDBF80E990EDA3E0B0E0F6
:100F800089839A83AB83BC8389819A81AB81BC813D
:100F900028EE33E040E050E0BC01CD010E941C1A75
:100FA000DA01C90189839A83AB83BC8389819A81E1
:100FB000AB81BC810197A109B10989839A83AB8375
:100FC000BC8389818D8389819A81AB81BC81892F82
:100FD0009A2FAB2FBB2789839A83AB83BC838981EC
:100FE0008E8389E890E02E81FC01208388E890E0E0
:100FF0002D81FC0120838BE08D8381E890E02D81A1
:10100000FC0120838FE690E0FC0180818D838D813F
:1010100082608D838FE690E02D81FC0120832A96EB
:101020000FB6F894DEBF0FBECDBFDF91CF9108950C
:101030000E9455071895CF93DF9300D0CDB7DEB748
:101040009A83898389819A819C012D5F3F4F898191
:101050009A81FC013283218389819A812FEF3FEFAE
:10106000FC013483238389819A819C012D5F3F4F4A
:1010700089819A81FC013683258389819A819C012B
:101080002D5F3F4F89819A81FC01308727838981B9
:101090009A81FC0110820F900F90DF91CF910895FB
:1010A000CF93DF9300D0CDB7DEB79A838983898150
:1010B0009A81FC01118610860F900F90DF91CF91DD
:1010C0000895CF93DF9300D000D000D0CDB7DEB726
:1010D0009C838B837E836D838B819C81FC018181CA
:1010E00092819A8389838D819E8129813A81FC0135
:1010F0003383228389819A81FC01248135818D810A
:101100009E81FC013583248389819A81FC0184813D
:1011100095812D813E81FC013383228389819A81CF
:101120002D813E81FC01358324838D819E812B811D
:101130003C81FC01318720878B819C81FC0180816F
:1011400021E0280F8B819C81FC01208326960FB61D
:10115000F894DEBF0FBECDBFDF91CF910895CF933E
:10116000DF93CDB7DEB728970FB6F894DEBF0FBE7A
:10117000CDBF9E838D8378876F838F819885FC0197
:10118000808191819C838B838B819C818F3FFFEF3A
:101190009F0741F48D819E81FC01878190859A8310
:1011A00089831AC08D819E8103969A83898307C0A3
:1011B00089819A81FC01828193819A8389838981C3
:1011C0009A81FC0182819381FC01208131818B8194
:1011D0009C818217930760F789819A81FC012281A3
:1011E00033818F819885FC01338322838F81988599
:1011F000FC01828193812F813885FC013583248312
:101200008F81988529813A81FC01358324838981E6
:101210009A812F813885FC01338322838F819885C1
:101220002D813E81FC01318720878D819E81FC01CB
:10123000808121E0280F8D819E81FC0120832896EA
:101240000FB6F894DEBF0FBECDBFDF91CF910895EA
:10125000CF93DF9300D000D0CDB7DEB79C838B83D4
:101260008B819C81FC01808591859A8389838B8108
:101270009C81FC01828193812B813C81F901248135
:101280003581FC01358324838B819C81FC01848121
:1012900095812B813C81F90122813381FC013383CB
:1012A000228389819A81FC01218132818B819C81F9
:1012B0002817390751F48B819C81FC0124813581E9
:1012C00089819A81FC01328321838B819C81FC017D
:1012D0001186108689819A81FC0180812FEF280F69
:1012E00089819A81FC01208389819A81FC01808116
:1012F0000F900F900F900F90DF91CF910895CF93A3
:10130000DF9300D000D01F92CDB7DEB79C838B83D4
:101310006D838B819C819A8389830FB6F8940F9299
:1013200089819A81FC012081318189819A81FC0126
:10133000838D682F70E089819A81FC01848D482F0C
:1013400050E0649FC001659F900D749F900D112423
:10135000280F391F89819A81FC0133832283898177
:101360009A81FC01128E89819A81FC012081318150
:1013700089819A81FC013583248389819A81FC01CA
:101380002081318189819A81FC01838D882F90E0B1
:10139000BC016150710989819A81FC01848D482FBB
:1013A00050E0649FC001659F900D749F900D1124C3
:1013B000280F391F89819A81FC013783268389810F
:1013C0009A812FEFFC01258F89819A812FEFFC01F3
:1013D000268F8D81882381F489819A81FC01808503
:1013E0008823A1F089819A8108960E94E0138130B8
:1013F00069F40E94FC060AC089819A8108960E94BD
:101400001B0889819A8141960E941B080F900FBE8C
:1014100081E00F900F900F900F900F90DF91CF9180
:101420000895CF93DF93CDB7DEB729970FB6F89421
:10143000DEBF0FBECDBF8F83688749871A821982AE
:101440008F81882309F443C08FE190E00E94BC049F
:101450009C838B838B819C810097C9F18F81482F5E
:1014600050E08885282F30E0429FC001439F900DB7
:10147000529F900D112401969E838D838D819E81B4
:101480000E94BC049C018B819C81FC0131832083E0
:101490008B819C81FC01808191810097A1F08B81DF
:1014A0009C812F81FC01238F8B819C812885FC01ED
:1014B000248F8B819C8161E00E947F098B819C81BC
:1014C0009A83898304C08B819C810E941205898143
:1014D0009A8129960FB6F894DEBF0FBECDBFDF917B
:1014E000CF910895CF93DF93CDB7DEB72E970FB688
:1014F000F894DEBF0FBECDBF998788877B876A8748
:101500005D874C872E871982888599859B838A837E
:101510000FB6F8940F928A819B81FC01228D8A81FB
:101520009B81FC01838D281718F08E85823011F580
:101530002A853B858A819B814E85B9010E94BF0C1B
:101540008C838A819B81FC018189882351F08A8167
:101550009B8141960E94E013813041F40E94FC0679
:1015600005C08C81882311F00E94FC060F900FBEED
:1015700081E061C08C859D85009721F40F900FBE9E
:1015800080E059C08981882331F4CE0105960E94FC
:101590004D1481E089830F900FBE0E9484110FB615
:1015A000F8940F928A819B81FC01858D8F3F21F4F5
:1015B0008A819B81FC01158E8A819B81FC01868D2D
:1015C0008F3F21F48A819B81FC01168E0F900FBE04
:1015D0009E01245F3F4FCE010596B9010E94681419
:1015E000882301F58A819B810E94510E882399F0FE
:1015F0002C853D858A819B810896B9010E949A13AA
:101600008A819B810E94CF0D0E949011882391F4C2
:101610000E94FC060FC08A819B810E94CF0D0E9410
:10162000901176CF8A819B810E94CF0D0E949011EC
:1016300080E001C06DCF2E960FB6F894DEBF0FBECE
:10164000CDBFDF91CF910895CF93DF93CDB7DEB7B4
:101650002B970FB6F894DEBF0FBECDBF9E838D8350
:1016600078876F835A8749872B878D819E819B83DB
:101670008A831C828A819B81FC01228D8A819B81C5
:10168000FC01838D281718F08B858230E9F52F81B6
:1016900038858A819B814B85B9010E94BF0C8823C4
:1016A00049F089859A85009729F089859A8521E0F6
:1016B000FC0120838A819B81FC01868D8F3FB9F4D8
:1016C0008A819B81FC0181898823D9F08A819B8151
:1016D00041960E94E0138823A1F089859A8500979E
:1016E00081F089859A8521E0FC0120830AC08A81E6
:1016F0009B81FC01868D21E0280F8A819B81FC0162
:10170000268F81E0898301C0198289812B960FB6CB
:10171000F894DEBF0FBECDBFDF91CF910895CF9378
:10172000DF93CDB7DEB72F970FB6F894DEBF0FBEAD
:10173000CDBF9A8789877C876B875E874D872F8788
:10174000198289859A859B838A830FB6F8940F92B4
:101750008A819B81FC01828D882309F445C08A819E
:101760009B81FC01868197819D838C832B853C85A1
:101770008A819B81B9010E947F0D8F858823D1F4D6
:101780008A819B81FC01828D2FEF280F8A819B81AA
:10179000FC01228F8A819B81FC018085882301F1D5
:1017A0008A819B8108960E94E0138130C9F40E94CF
:1017B000FC0616C08A819B812C813D81FC01378308
:1017C00026838A819B81FC018189882349F08A8153
:1017D0009B8141960E94E013882311F00E94FC0631
:1017E0000F900FBE81E061C08D859E85009721F42A
:1017F0000F900FBE80E059C08981882331F4CE015B
:1018000006960E944D1481E089830F900FBE0E94BE
:1018100084110FB6F8940F928A819B81FC01858D0B
:101820008F3F21F48A819B81FC01158E8A819B81E7
:10183000FC01868D8F3F21F48A819B81FC01168EED
:101840000F900FBE9E01235F3F4FCE010696B90158
:101850000E946814882301F58A819B810E94330EBF
:10186000882399F02D853E858A819B814196B90117
:101870000E949A138A819B810E94CF0D0E94901131
:10188000882391F40E94FC060FC08A819B810E94EC
:10189000CF0D0E94901159CF8A819B810E94CF0D5C
:1018A0000E94901180E001C050CF2F960FB6F8949F
:1018B000DEBF0FBECDBFDF91CF910895CF93DF93F1
:1018C000CDB7DEB72A970FB6F894DEBF0FBECDBFF7
:1018D0009E838D8378876F835A8749878D819E8108
:1018E0009B838A831C828A819B81FC01828D882351
:1018F000D9F12F8138858A819B81B9010E947F0DA2
:101900008A819B81FC01828D2FEF280F8A819B8128
:10191000FC01228F8A819B81FC01858D8F3FB9F468
:101920008A819B81FC0180858823D9F08A819B81F3
:1019300008960E94E0138823A1F089859A85009774
:1019400081F089859A8521E0FC0120830AC08A8183
:101950009B81FC01858D21E0280F8A819B81FC0100
:10196000258F81E0898301C0198289812A960FB66B
:10197000F894DEBF0FBECDBFDF91CF910895CF9316
:10198000DF9300D000D000D0CDB7DEB79B838A8331
:101990007D836C834E8319828A819B81FC01848DB7
:1019A000882309F498C08E818823D9F58A819B8188
:1019B000FC01848D482F50E08A819B81FC01848149
:1019C00095812C813D81B9010E943E1A8A819B81BB
:1019D000FC01248135818A819B81FC01848D882FC3
:1019E00090E0280F391F8A819B81FC013583248375
:1019F0008A819B81FC01248135818A819B81FC0144
:101A0000828193812817390708F465C08A819B81F8
:101A1000FC01208131818A819B81FC0135832483F3
:101A20005AC08A819B81FC01848D482F50E08A81B5
:101A30009B81FC01868197812C813D81B9010E94A7
:101A40003E1A8A819B81FC01268137818A819B8194
:101A5000FC01848D882F90E0919581959109280F44
:101A6000391F8A819B81FC01378326838A819B8170
:101A7000FC01268137818A819B81FC0180819181D3
:101A800028173907A8F48A819B81FC0122813381C0
:101A90008A819B81FC01848D882F90E091958195AE
:101AA0009109280F391F8A819B81FC013783268386
:101AB0008E81823081F48A819B81FC01828D882312
:101AC00051F08A819B81FC01828D2FEF280F8A8142
:101AD0009B81FC01228F8A819B81FC01828D21E008
:101AE000280F8A819B81FC01228F898126960FB65F
:101AF000F894DEBF0FBECDBFDF91CF910895CF9395
:101B0000DF9300D000D0CDB7DEB79A8389837C8382
:101B10006B8389819A81FC01848D8823C9F1898135
:101B20009A81FC012681378189819A81FC01848D0B
:101B3000882F90E0280F391F89819A81FC01378313
:101B4000268389819A81FC012681378189819A8146
:101B5000FC01828193812817390750F089819A818D
:101B6000FC012081318189819A81FC0137832683A0
:101B700089819A81FC01848D482F50E089819A8166
:101B8000FC01268137818B819C81B9010E943E1A1C
:101B90000F900F900F900F90DF91CF910895CF93FA
:101BA000DF9300D0CDB7DEB79A8389830FB6F89460
:101BB0000F921BC089819A81FC018189882351F091
:101BC00089819A8141960E94E013882321F00E9426
:101BD000DB1401C010C089819A81FC01868D2FEF32
:101BE000280F89819A81FC01268F89819A81FC01C5
:101BF000868D1816FCF289819A812FEFFC01268FC1
:101C00000F900FBE0FB6F8940F921BC089819A8176
:101C1000FC0180858823A1F089819A8108960E9421
:101C2000E013882311F00E94DB1489819A81FC0162
:101C3000858D2FEF280F89819A81FC01258F01C0A6
:101C400006C089819A81FC01858D1816FCF2898174
:101C50009A812FEFFC01258F0F900FBE0F900F90F0
:101C6000DF91CF910895CF93DF9300D01F92CDB72E
:101C7000DEB79B838A830FB6F8940F928A819B818B
:101C8000FC01828D882319F481E0898301C01982C7
:101C90000F900FBE89810F900F900F90DF91CF9121
:101CA0000895CF93DF9300D01F92CDB7DEB79B830B
:101CB0008A830FB6F8940F928A819B81FC01228D52
:101CC0008A819B81FC01838D281719F481E0898327
:101CD00001C019820F900FBE89810F900F900F9055
:101CE000DF91CF910895CF93DF9300D000D01F9262
:101CF000CDB7DEB79B838A837D836C8319822EC028
:101D00008981882F90E0880F991F880F991F835829
:101D1000974FFC01808191810097E9F48981882F98
:101D200090E0880F991F880F991F8358974F2C8137
:101D30003D81FC01318320838981882F90E0880FC9
:101D4000991F880F991F8158974F2A813B81FC0169
:101D50003183208306C089818F5F898389818A309E
:101D600078F20F900F900F900F900F90DF91CF911E
:101D70000895AF92BF92CF92DF92EF92FF920F93AE
:101D80001F93CF93DF93CDB7DEB764970FB6F89468
:101D9000DEBF0FBECDBF9F838E83798768875B8749
:101DA0004A873D872C870E87F88AEF86DA8AC98AA8
:101DB000BC8AAB8A29893A898A859B85B9010E94A8
:101DC000FC159B838A838A819B81009709F491C0CB
:101DD0008A819B81FC012789308D8A859B850197AB
:101DE000820F931F9D838C834A855B852B893C8959
:101DF000688579858A819B818A014E850E94F514C8
:101E00004C855D852E813F818C819D81B9010E9429
:101E10001E059C018A819B81FC01318320838F8573
:101E20009889009739F08F8598892A813B81FC0138
:101E3000318320830FB6F8940F9280916A088F5FE8
:101E400080936A0880911C0890911D08009769F49E
:101E50008A819B8190931D0880931C0880916A0859
:101E60008130B1F40E946E1513C080916E088823F2
:101E700079F480911C0890911D08FC0196898E854B
:101E8000891730F08A819B8190931D0880931C08EC
:101E9000809172088F5F809372088A819B81FC0118
:101EA000968980916D08891730F48A819B81FC01A5
:101EB000868980936D088A819B81AC014E5F5F4F5C
:101EC0008A819B81FC018689282F30E0C901880F17
:101ED000991F880F991F880F991F820F931F825E89
:101EE000974FBA010E94610881E089830F900FBE6D
:101EF00002C08FEF89838981813079F480916E08E7
:101F0000882359F080911C0890911D08FC01968946
:101F10008E85981710F40E94FC06898164960FB68E
:101F2000F894DEBF0FBECDBFDF91CF911F910F910F
:101F3000FF90EF90DF90CF90BF90AF900895CF9338
:101F4000DF93CDB7DEB72A970FB6F894DEBF0FBE8A
:101F5000CDBF98878F837A87698719820E94841101
:101F600080916B0890916C089B838A838F81988500
:101F7000FC012081318189859A85820F931F9D8381
:101F80008C838F819885FC01208131818A819B819E
:101F900082179307A0F48F819885FC0120813181FD
:101FA0008C819D8182179307E8F42C813D818A8181
:101FB0009B8182179307B0F481E0898313C08F81DE
:101FC0009885FC01208131818C819D818217930746
:101FD00038F02C813D818A819B818217930710F410
:101FE00081E089838F8198852C813D81FC0131833B
:101FF00020838981882359F080911C0890911D08C5
:1020000002960E9428098C819D810E94B2150E942F
:1020100090118E838E81882311F40E94FC062A96EB
:102020000FB6F894DEBF0FBECDBFDF91CF910895FC
:10203000CF93DF9300D000D01F92CDB7DEB79D8342
:102040008C8319828C819D810097D1F00E9484112C
:1020500020916B0830916C088C819D81820F931FB9
:102060009B838A8380911C0890911D0802960E9490
:1020700028098A819B810E94B2150E949011898350
:102080008981882311F40E94FC060F900F900F9015
:102090000F900F90DF91CF910895CF93DF9300D0F1
:1020A00000D0CDB7DEB79C838B830FB6F8940F9228
:1020B0008B819C81009729F480911C0890911D08C8
:1020C00002C08B819C819A83898389819A8102963F
:1020D0000E94280989819A81FC0184899589009749
:1020E00029F089819A810C960E94280989819A8118
:1020F0000296BC0181E698E00E9461080F900FBE35
:1021000080911C0890911D0829813A812817390770
:10211000A9F480916E08882319F00E94FC0619C06A
:102120009091610880916A08981729F410921D080F
:1021300010921C080EC00E942B130BC080916E08D9
:10214000882339F00FB6F8940F920E9446160F902C
:102150000FBE0F900F900F900F90DF91CF910895C9
:10216000CF93DF9300D000D01F92CDB7DEB79D8311
:102170008C8319828C819D819B838A838A819B8138
:10218000FC0182859385F8E081369F0791F48A816E
:102190009B81FC0184899589F8E088359F0749F087
:1021A0008A819B81FC0184899589009711F481E0E3
:1021B000898389810F900F900F900F900F90DF917E
:1021C000CF910895CF93DF9300D000D0CDB7DEB785
:1021D0009C838B838B819C819A83898389819A815B
:1021E000009709F44FC080911C0890911D08298127
:1021F0003A812817390709F445C00FB6F8940F92B1
:1022000089819A810E94B0108130D1F589819A81AB
:1022100002960E94280989819A81FC019689809101
:102220006D08891730F489819A81FC018689809331
:102230006D0889819A81AC014E5F5F4F89819A81D7
:10224000FC018689282F30E0C901880F991F880F6B
:10225000991F880F991F820F931F825E974FBA01B3
:102260000E94610889819A81FC01268980911C085D
:1022700090911D08FC018689281710F00E94FC0629
:102280000F900FBE0F900F900F900F90DF91CF9196
:102290000895AF92BF92CF92DF92EF92FF920F9389
:1022A000CF93DF931F92CDB7DEB7A12CB12CC12CF9
:1022B000D12CE12CF12C00E020E030E045E550E0AD
:1022C00064E971E085EE94E10E94B90E8983898109
:1022D000813079F4F89481E080936E0810926C0854
:1022E00010926B080E94C706882319F081E0809342
:1022F0006E080F90DF91CF910F91FF90EF90DF90DC
:10230000CF90BF90AF900895CF93DF93CDB7DEB756
:10231000809173088F5F80937308DF91CF91089548
:10232000CF93DF9300D01F92CDB7DEB719820FB6DF
:10233000F8940F9280917308815080937308809174
:102340007308882309F071C080916A08882309F412
:102350006CC049C080915D0890915E08FC01868147
:1023600097819B838A838A819B810C960E9428098E
:102370008A819B8102960E9428098A819B81FC01A7
:10238000968980916D08891730F48A819B81FC01C0
:10239000868980936D088A819B81AC014E5F5F4F77
:1023A0008A819B81FC018689282F30E0C901880F32
:1023B000991F880F991F880F991F820F931F825EA4
:1023C000974FBA010E9461088A819B81FC0126898E
:1023D00080911C0890911D08FC018689281718F02F
:1023E00081E08093700880915808882309F0B2CF6B
:1023F00080916F08882389F00CC00E9435128823D1
:1024000019F081E08093700880916F08815080936B
:102410006F0880916F08882381F780917008813060
:1024200021F481E089830E94FC060F900FBE898110
:102430000F900F900F90DF91CF910895CF93DF937E
:1024400000D0CDB7DEB70FB6F8940F9280916B082D
:1024500090916C089A8389830F900FBE89819A812D
:102460000F900F90DF91CF910895CF93DF93CDB769
:10247000DEB729970FB6F894DEBF0FBECDBF198225
:1024800080917308882309F0CFC080916B089091E8
:102490006C08019690936C0880936B0880916B0890
:1024A00090916C089B838A838A819B810097D9F4E1
:1024B00080915408909155089D838C838091560893
:1024C0009091570890935508809354088C819D8172
:1024D0009093570880935608809171088F5F80937E
:1024E00071080E94461680910D0190910E012A817B
:1024F0003B812817390708F477C0809154089091E0
:102500005508FC018081882339F48FEF9FEF909369
:102510000E0180930D0168C0809154089091550878
:10252000FC0185819681FC01868197819F838E8342
:102530008E819F81FC0182819381998788872A817E
:102540003B81888599852817390738F488859985CE
:1025500090930E0180930D0147C08E819F8102965A
:102560000E9428098E819F81FC01848995890097AA
:1025700029F08E819F810C960E9428098E819F816F
:10258000FC01968980916D08891730F48E819F81B6
:10259000FC01868980936D088E819F81AC014E5F1E
:1025A0005F4F8E819F81FC018689282F30E0C90111
:1025B000880F991F880F991F880F991F820F931FEB
:1025C000825E974FBA010E9461088E819F81FC0153
:1025D000268980911C0890911D08FC018689281786
:1025E00010F081E0898389CF80911C0890911D08AB
:1025F000FC018689282F30E0C901880F991F880FB8
:10260000991F880F991F820F931F825E974FFC01BD
:102610008081823010F081E0898380916F08882367
:1026200051F40E94AC0407C080916F088F5F8093C3
:102630006F080E94AC0480917008882311F081E03B
:102640008983898129960FB6F894DEBF0FBECDBF6E
:10265000DF91CF910895CF93DF9300D0CDB7DEB750
:1026600080917308882321F081E0809370085DC019
:102670001092700805C080916D08815080936D089C
:1026800080916D08282F30E0C901880F991F880FAD
:10269000991F880F991F820F931F825E974FFC012D
:1026A0008081882341F380916D08282F30E0C90193
:1026B000880F991F880F991F880F991F820F931FEA
:1026C000825E974F9A83898389819A81FC018181F7
:1026D0009281FC012281338189819A81FC013283BC
:1026E000218389819A81FC012181328189819A81AA
:1026F00003962817390769F489819A81FC01818141
:102700009281FC012281338189819A81FC0132838B
:10271000218389819A81FC0181819281FC018681DA
:10272000978190931D0880931C080F900F90DF9164
:10273000CF910895CF93DF9300D000D000D0CDB7D4
:10274000DEB79C838B837E836D8380911C08909180
:102750001D089C01245F3F4F8B819C81B9010E9421
:10276000AF0880911C0890911D0802960E942809CC
:102770008D819E818F3F2FEF920759F480911C0825
:1027800090911D080296BC0181E698E00E946108C4
:102790000EC020916B0830916C088D819E81820F54
:1027A000931F9A83898389819A810E94B215269604
:1027B0000FB6F894DEBF0FBECDBFDF91CF91089565
:1027C000CF93DF9300D000D01F92CDB7DEB79D83AB
:1027D0008C838C819D81FC0185819681FC018681A1
:1027E00097819B838A838A819B810C960E9428090A
:1027F00080917308882369F58A819B8102960E94E3
:1028000028098A819B81FC01968980916D0889172E
:1028100030F48A819B81FC01868980936D088A81CE
:102820009B81AC014E5F5F4F8A819B81FC01868951
:10283000282F30E0C901880F991F880F991F880F32
:10284000991F820F931F825E974FBA010E94610801
:1028500008C08A819B810C96BC0188E598E00E94A3
:1028600061088A819B81FC01268980911C089091D6
:102870001D08FC018689821730F481E0898381E09C
:102880008093700801C0198289810F900F900F907A
:102890000F900F90DF91CF910895CF93DF9300D0E9
:1028A000CDB7DEB79A8389832091710889819A8197
:1028B000FC01208320916B0830916C0889819A81FA
:1028C000FC01328321830F900F90DF91CF91089507
:1028D000CF93DF93CDB7DEB727970FB6F894DEBF5F
:1028E0000FBECDBF9D838C837F836E830FB6F8941C
:1028F0000F9280916B0890916C089B838A838E81E4
:102900009F81FC01808191818F3FFFEF9F0711F430
:10291000198245C08C819D81FC0190818091710854
:10292000981769F08C819D81FC01218132818A8117
:102930009B818217930718F081E0898330C08C81D6
:102940009D81FC01818192812A813B81281B390B69
:102950008E819F81FC018081918128173907E8F4DD
:102960008E819F81FC01208131818C819D81FC01C0
:10297000418152818A819B81BA01681B790BCB010D
:10298000280F391F8E819F81FC01318320838C8128
:102990009D810E944D14198202C081E089830F90AD
:1029A0000FBE898127960FB6F894DEBF0FBECDBF4C
:1029B000DF91CF910895CF93DF93CDB7DEB781E05C
:1029C00080937008DF91CF910895CF93DF9300D06B
:1029D000CDB7DEB79A8389830E94AB1580911E081C
:1029E000823010F00E94FC06F7CF0F931F93CF9315
:1029F000DF93CDB7DEB72A970FB6F894DEBF0FBED0
:102A0000CDBF9B838A837D836C834E8338872F83DE
:102A10001A870987198222C08981882F90E029812D
:102A2000222F30E04C815D81240F351FF901408158
:102A30002A813B81820F931F4996FC014083898143
:102A4000882F90E02C813D81820F931FFC018081B3
:102A5000882309F406C089818F5F89838981843046
:102A6000D8F28A819B81FC01148E8E81843010F013
:102A700083E08E838A819B812E81FC01268B8A8153
:102A80009B8102960E9450088A819B810C960E942D
:102A900050088A819B812A813B81FC0131872087F4
:102AA0008E81882F90E024E030E0281B390B8A814A
:102AB0009B81FC01358724878A819B812A813B8108
:102AC000FC01338B228B2A960FB6F894DEBF0FBE23
:102AD000CDBFDF91CF911F910F910895CF93DF93D9
:102AE0001F92CDB7DEB7198213C08981282F30E03D
:102AF000C901880F991F880F991F880F991F820F8E
:102B0000931F825E974F0E941B0889818F5F898384
:102B10008981843050F382E498E00E941B088BE4A2
:102B200098E00E941B0888E598E00E941B0881E657
:102B300098E00E941B0882E498E0909355088093E7
:102B400054088BE498E090935708809356080F90B0
:102B5000DF91CF910895CF93DF93CDB7DEB7DF91AB
:102B6000CF910895CF93DF9300D0CDB7DEB79A838E
:102B7000898380911C0890911D0829813A81FC016C
:102B80003383228380916B0890916C0829813A816C
:102B90002817390778F480911C0890911D089C0132
:102BA0002E5F3F4F8091560890915708B9010E94BF
:102BB000AF081DC080911C0890911D089C012E5FDC
:102BC0003F4F8091540890915508B9010E94AF0879
:102BD00080910D0190910E0129813A8128173907C2
:102BE00030F489819A8190930E0180930D010F90AA
:102BF0000F90DF91CF910895CF93DF9300D000D055
:102C000000D0CDB7DEB79C838B837E836D838DE14F
:102C100090E00E94BC049A83898389819A810097FD
:102C200051F18D819E81009729F48B819C810E94B6
:102C3000BC0402C08D819E8129813A81F901908F67
:102C4000878B89819A81FC018789908D009739F45F
:102C500089819A810E9412051A8219820CC0898189
:102C60009A81FC018789908D2B813C81A90165EABD
:102C700070E00E94471A89819A8126960FB6F894CF
:102C8000DEBF0FBECDBFDF91CF910895CF93DF930D
:102C900000D0CDB7DEB78091540890915508FC0163
:102CA0008081882339F48FEF9FEF90930E018093FA
:102CB0000D0115C08091540890915508FC01858143
:102CC0009681FC01868197819A83898389819A8183
:102CD000FC018281938190930E0180930D010F90EE
:102CE0000F90DF91CF910895AF92BF92CF92DF9274
:102CF000EF92FF920F93CF93DF931F92CDB7DEB782
:102D00008983A12CB12CC12CD12C0F2EF5EAEF2EEA
:102D1000F8E0FF2EF02D098120E030E04AEA50E093
:102D200069E971E081EA96E10E94B90E0F90DF91A6
:102D3000CF910F91FF90EF90DF90CF90BF90AF9029
:102D40000895CF93DF93CDB7DEB727970FB6F894EA
:102D5000DEBF0FBECDBF9F838E8382E089838981D2
:102D6000882F90E0AC014F5F5F4F2DE431E0429F30
:102D7000C001439F900D529F900D11249B838A8325
:102D80008A819B81969587959B838A830E941E12D8
:102D90009D838C832091A7083091A808CE010496CA
:102DA000B9010E949F0F89810E943F172091A708B7
:102DB0003091A808CE010496B9010E949F0F898125
:102DC0000E943F17E7CFCF93DF93CDB7DEB71092C6
:102DD000740887E290E02FE3FC01208388E290E012
:102DE00027E0FC0120838AE290E02CE1FC012083B3
:102DF00084E290E0FC01108285E290E0FC01108208
:102E0000DF91CF910895CF93DF9300D01F92CDB77C
:102E1000DEB78A836B8381E089838A81883048F5B5
:102E20008981882F90E02A81222F30E002C0880F0C
:102E3000991F2A95E2F789830E9484118B81813042
:102E400039F4909174088981892B8093740809C0A2
:102E500089818095898390917408898189238093E1
:102E600074088BE290E020917408FC0120830E949A
:102E700090110F900F900F90DF91CF910895CF9305
:102E8000DF9300D0CDB7DEB78A838A81883050F5D2
:102E90008A81282F30E081E090E002C0880F991FDE
:102EA0002A95E2F789830E948411909174088981A0
:102EB0008923882349F08981982F909580917408FF
:102EC00089238093740806C0909174088981892BA6
:102ED000809374088BE290E020917408FC012083B9
:102EE0000E9490110F900F90DF91CF910895AF92B3
:102EF000BF92CF92DF92EF92FF920F93CF93DF9327
:102F000000D000D000D0CDB7DEB789834A835B8381
:102F10006C837D832E838A819B81AC81BD8144E05B
:102F2000BC01CD010E940E03A12CB12CC12CD12CCF
:102F30000F2EFEEAEF2EF8E0FF2EF02D098120E0A3
:102F400030E04AEA50E06BE971E089EB97E10E94DA
:102F5000B90E26960FB6F894DEBF0FBECDBFDF9137
:102F6000CF910F91FF90EF90DF90CF90BF90AF90F7
:102F70000895CF93DF9300D01F92CDB7DEB79B8328
:102F80008A8367E070E080E191E00E942C1866E19E
:102F900070E087E191E00E942C186CE170E08DE216
:102FA00091E00E942C1869E170E089E491E00E94B0
:102FB0002C1880917508909176084FEF5FEF9E0175
:102FC0002F5F3F4FB9010E949A03882309F443C041
:102FD00080910801873078F580910801882359F1A4
:102FE0008981823719F08981823569F480910F01D6
:102FF0008E3441F482E780930F0110927A08109288
:10300000790812C011C08981833719F0898183350D
:1030100059F480910F01823539F483E780930F01D1
:1030200010927A0810927908809177089091780828
:103030000E94E21010C088E290E020910701FC019C
:10304000208383E391E09093A8088093A7088EE4FF
:1030500080930F01AECFADCFCF93DF9300D000D0E0
:1030600000D0CDB7DEB79C838B837E836D831A82BD
:10307000198220C081E090E00E94181089819A8115
:103080002B813C81820F931FFC018081282F80912E
:1030900075089091760840E050E0622F0E94C003CE
:1030A000813019F486E00E943F1789819A81019648
:1030B0009A83898329813A818D819E8128173907D6
:1030C000CCF260E086E00E94031726960FB6F894D3
:1030D000DEBF0FBECDBFDF91CF9108955058BB2703
:1030E000AA270ED008C1F9D030F0FED020F031F47C
:1030F0009F3F11F41EF4EEC00EF4E095E7FBE4C030
:10310000E92F0AD180F3BA1762077307840795077E
:1031100018F071F49EF522C10EF4E0950B2EBA2F33
:10312000A02D0B01B90190010C01CA01A0011124CD
:10313000FF27591B99F0593F50F4503E68F11A1679
:10314000F040A22F232F342F4427585FF3CF46950A
:1031500037952795A795F0405395C9F77EF41F162C
:10316000BA0B620B730B840BBAF09150A1F0FF0FF6
:10317000BB1F661F771F881FC2F70EC0BA0F621FE2
:10318000731F841F48F4879577956795B795F795D2
:103190009E3F08F0B3CF9395880F08F09927EE0F64
:1031A0009795879508956CD008F481E00895BCD078
:1031B00088F09F5790F0B92F9927B751A0F0D1F020
:1031C000660F771F881F991F1AF0BA95C9F712C0AA
:1031D000B13081F0C3D0B1E00895C0C0672F782F1F
:1031E0008827B85F39F0B93FCCF386957795679516
:1031F000B395D9F73EF490958095709561957F4F82
:103200008F4F9F4F0895E89409C097FB3EF4909527
:103210008095709561957F4F8F4F9F4F9923A9F0AF
:10322000F92F96E9BB279395F6958795779567953E
:10323000B795F111F8CFFAF4BB0F11F460FF1BC082
:103240006F5F7F4F8F4F9F4F16C0882311F096E915
:1032500011C0772321F09EE8872F762F05C06623C3
:1032600071F096E8862F70E060E02AF09A95660F7C
:10327000771F881FDAF7880F9695879597F9089535
:10328000990F0008550FAA0BE0E8FEEF1616170677
:10329000E807F907C0F012161306E407F50798F0DF
:1032A000621B730B840B950B39F40A2661F0232BF8
:1032B000242B252B21F408950A2609F4A140A69574
:1032C0008FEF811D811D089597F99F6780E870E059
:1032D00060E008959FEF80EC089500240A9416168C
:1032E000170618060906089500240A9412161306F4
:1032F000140605060895092E0394000C11F4882382
:1033000052F0BB0F40F4BF2B11F460FF04C06F5F9D
:103310007F4F8F4F9F4F089557FD9058440F551F73
:1033200059F05F3F71F04795880F97FB991F61F047
:103330009F3F79F087950895121613061406551FBE
:10334000F2CF4695F1DF08C0161617061806991F2A
:10335000F1CF86957105610508940895E894BB271F
:1033600066277727CB0197F908958ADF08F48FEF56
:1033700008950BD0C0CFB1DF28F0B6DF18F0952349
:1033800009F0A2CFA7CF1124EACFC6DFA0F3959F03
:10339000D1F3950F50E0551F629FF001729FBB273C
:1033A000F00DB11D639FAA27F00DB11DAA1F649FE8
:1033B0006627B00DA11D661F829F2227B00DA11D9B
:1033C000621F739FB00DA11D621F839FA00D611D21
:1033D000221F749F3327A00D611D231F849F600D42
:1033E000211D822F762F6A2F11249F5750408AF07B
:1033F000E1F088234AF0EE0FFF1FBB1F661F771F07
:10340000881F91505040A9F79E3F510570F05CCF46
:10341000A6CF5F3FECF3983EDCF3869577956795F2
:10342000B795F795E7959F5FC1F7FE2B880F911D24
:103430009695879597F90895A1E21A2EAA1BBB1BB2
:10344000FD010DC0AA1FBB1FEE1FFF1FA217B30770
:10345000E407F50720F0A21BB30BE40BF50B661F86
:10346000771F881F991F1A9469F76095709580954A
:1034700090959B01AC01BD01CF010895FB01DC01DA
:1034800002C001900D9241505040D8F70895DC01E0
:1034900001C06D9341505040E0F70895F894FFCF7C
:1034A0003F260D2513160B3FFF7B14AE3DFFFF4E4D
:1034B0001B5B324A1B5B482323204C6967687420DE
:1034C0004261737469616E2052544F530A523A201C
:1034D00052756E09533A2053746F702028526573E9
:1034E0006574732050574D290A2B3A205370656537
:1034F00064205550092D3A20536C6F7720446F7724
:103500006E0A4D6F746F722053656D6170686F72D3
:1035100065004D0052004E005278204368617220D1
:103520005175657565005478204368617220517546
:103530006575650049444C45004C00540025640005
:00000001FF
