:100000000C9434000C9451000C9451000C94BD02DB
:100010000C9451000C9451000C9451000C9451001C
:100020000C9451000C9451000C9451000C94000855
:100030000C9451000C9451000C9451000C945100FC
:100040000C9451000C9451000C94DB030C9420048C
:100050000C9451000C9451000C9451000C945100DC
:100060000C9451000C94510011241FBECFEFD8E026
:10007000DEBFCDBF11E0A0E0B1E0ECE8F4E302C0E8
:1000800005900D92A437B107D9F725E0A4E7B1E0B8
:1000900001C01D92A33FB207E1F70E9471040C94C6
:1000A000441A0C940000CF93DF93CDB7DEB788E2FB
:1000B00090E020910701FC0120830E94AF0243E001
:1000C00060E081E00E94F9099093E7058093E605DE
:1000D0001092E5051092E4058AE290E02AE230E011
:1000E000F90120812860FC01208380EB90E023E26D
:1000F000FC01208381EB90E022E0FC01208384EB73
:1001000090E02FEFFC01208388E690E028E630E0C5
:10011000F90120812160FC0120838BE690E02BE631
:1001200030E0F90120812760FC012083DF91CF912D
:100130000895AF92BF92CF92DF92EF92FF920F930A
:10014000CF93DF931F92CDB7DEB7898389818F5F0D
:10015000A12CB12CC12CD12CE12CF12C082F20E0AA
:1001600030E04AEA50E062E671E089ED90E00E94FA
:100170005B0EA12CB12CC12CD12C0F2EF2EEEF2E48
:10018000F5E0FF2EF02D098120E030E04AEA50E052
:1001900064E671E08FE391E00E945B0E0F90DF91C7
:1001A000CF910F91FF90EF90DF90CF90BF90AF90E5
:1001B0000895CF93DF9300D01F92CDB7DEB79B8316
:1001C0008A838091E6059091E70520E04FEF5FEF8D
:1001D00060E070E00E94770B882309F44FC089E249
:1001E00090E0FC018081807A898380910F018235C3
:1001F00041F080910F01823721F080910F01833708
:10020000C1F48981882F90E080729927009789F046
:1002100088E290E023E230E0F9012081222F30E0F3
:100220002770332720503F4FF9012081FC012083A4
:1002300025C080910F018E3461F488E290E0209116
:100240000701FC01208384EB90E02FEFFC01208369
:1002500015C088E290E020910701FC01208384EB27
:1002600090E02FEFFC01208383E391E09093EB0576
:100270008093EA058EE480930F01A3CFA2CF0F9362
:100280001F93CF93DF9300D000D000D0CDB7DEB75F
:100290009E838D8381E090E09A83898380E090E063
:1002A0000E94EF0F0E94C0119C838B8380910F01ED
:1002B000823709F0F6C084EB90E0FC0190818091D8
:1002C0007401891708F077C084EB90E0FC0180810D
:1002D000882F90E0AA2797FDA095BA2FBC01CD01E9
:1002E0000E94FB18DC01CB0120E030E0A901BC0139
:1002F000CD010E94AB1918160CF05DC084EB90E0A4
:10030000FC018081882F90E0AA2797FDA095BA2F45
:10031000BC01CD010E94FB18DC01CB0120E030E0E4
:100320004FE753E4BC01CD010E94C918882309F0AE
:1003300042C004EB10E08091E4059091E505CC010A
:10034000A0E0B0E0BC01CD010E94F918DC01CB01B6
:100350002091090130910A0140910B0150910C014B
:10036000BC01CD010E94AF19DC01CB019C01AD01A4
:1003700060E070E08FE793E40E946418DC01CB0139
:10038000BC01CD010E94CD18DC01CB01F8018083B6
:100390008091E6059091E70520E040E050E060E0C4
:1003A00070E00E945A0A29813A81CE010396B90170
:1003B0000E94410F75C084EB90E0FC019081809118
:1003C0007401891708F050C084EB90E0FC01808133
:1003D000882F90E0AA2797FDA095BA2FBC01CD01E8
:1003E0000E94FB18DC01CB0120E030E0A901BC0138
:1003F000CD010E94AB191816BCF504EB10E08091FA
:10040000E4059091E505CC01A0E0B0E0BC01CD0190
:100410000E94F918DC01CB012091090130910A01F9
:1004200040910B0150910C01BC01CD010E94AF190C
:10043000DC01CB019C01AD0160E070E08FE793E44B
:100440000E946418DC01CB01BC01CD010E94CD18D3
:10045000DC01CB01F801808329813A81CE0103962A
:10046000B9010E94410F1CC084EB90E0FC01908117
:1004700080917401981740F482E580930F0180E029
:1004800090E00E94EF0F6AC084EB90E0FC01808155
:1004900082E580930F0180E090E00E94EF0F5EC044
:1004A0005DC080910F01833709F058C084EB90E064
:1004B000FC018081882F90E0AA2797FDA095BA2F94
:1004C000BC01CD010E94FB18DC01CB0120E030E033
:1004D0004FE753E4BC01CD010E94AB19882344F0DF
:1004E0008EE480930F0180E090E00E94EF0F36C011
:1004F00004EB10E08091E4059091E505CC01A0E0CB
:10050000B0E0BC01CD010E94F918DC01CB012091C3
:10051000090130910A0140910B0150910C01BC017D
:10052000CD010E94AF19DC01CB0120E030E0A90130
:10053000BC01CD010E946518DC01CB01BC01CD01DD
:100540000E94CD18DC01CB01F801808329813A811A
:10055000CE010396B9010E94410FA8CEA7CECF933A
:10056000DF93CDB7DEB783E290E0FC018081877036
:1005700080930801DF91CF9108951F920F92009010
:100580005F000F9211242F933F934F935F936F93CC
:100590007F938F939F93AF93BF93EF93FF93CF93EB
:1005A000DF9300D0CDB7DEB71A82198280910F0198
:1005B000882F90E021E08636920791F08091E60541
:1005C0009091E70520E0AE014F5F5F4F60E070E083
:1005D0000E940C0B89819A81009711F00E94E40619
:1005E0000F900F90DF91CF91FF91EF91BF91AF915D
:1005F0009F918F917F916F915F914F913F912F913B
:100600000F9000925F000F901F901895CF93DF938B
:10061000CDB7DEB72E970FB6F894DEBF0FBECDBFB5
:100620006E837F83888799874A870FB6F8940F92E5
:1006300040E061E08A850E94F909909376018093F9
:10064000750140E061E08A850E94F9099093780184
:10065000809377018E819F81A885B985880F991F26
:10066000AA1FBB1F880F991FAA1FBB1F880F991FA6
:10067000AA1FBB1F880F991FAA1FBB1F9C01AD019A
:1006800080E094E2A4EFB0E0BC01CD010E94121A18
:10069000DA01C9010197A109B10989839A83AB8362
:1006A000BC8389818D8384EC90E02D81FC012083C3
:1006B00089819A81AB81BC81892F9A2FAB2FBB276F
:1006C00089839A83AB83BC8389818D8385EC90E099
:1006D0002D81FC01208382EC90E026E0FC01208348
:1006E00081EC90E028E9FC0120830F900FBE80E0B0
:1006F00090E02E960FB6F894DEBF0FBECDBFDF910F
:10070000CF910895CF93DF9300D000D000D0CDB724
:10071000DEB79A8389837C836B835E834D8380916C
:100720007501909176014D815E816B817C8120E025
:100730000E94770B882311F081E001C080E02696AB
:100740000FB6F894DEBF0FBECDBFDF91CF910895F5
:10075000CF93DF9300D000D000D0CDB7DEB79B831E
:100760008A836C835E834D838091770190917801B9
:100770004D815E81BE016C5F7F4F20E00E945A0A6E
:10078000813011F080E00EC081EC90E0FC018081AE
:10079000898389818062898381EC90E02981FC01D1
:1007A000208381E026960FB6F894DEBF0FBECDBF42
:1007B000DF91CF9108951F920F9200905F000F92EA
:1007C00011242F933F934F935F936F937F938F9356
:1007D0009F93AF93BF93EF93FF93CF93DF9300D09B
:1007E000CDB7DEB71A8286EC90E0FC018081898368
:1007F0008091750190917601AE014E5F5F4F20E0D0
:10080000BE016F5F7F4F0E940C0B8A81882311F01D
:100810000E94E4060F900F90DF91CF91FF91EF912E
:10082000BF91AF919F918F917F916F915F914F9108
:100830003F912F910F9000925F000F901F9018959D
:100840001F920F9200905F000F9211242F933F93FD
:100850004F935F936F937F938F939F93AF93BF93C8
:10086000EF93FF93CF93DF9300D01F92CDB7DEB706
:100870008091770190917801AE014D5F5F4F9E01AD
:100880002E5F3F4FB9010E94460C813031F486EC57
:1008900090E02A81FC0120830DC081EC90E0FC01F6
:1008A0008081898389818F7D898381EC90E0298192
:1008B000FC0120830F900F900F90DF91CF91FF915B
:1008C000EF91BF91AF919F918F917F916F915F91C8
:1008D0004F913F912F910F9000925F000F901F90CA
:1008E0001895CF93DF93CDB7DEB70E94D9160E943B
:1008F000530084E395E09093EB058093EA0581E053
:100900000E946A1682E00E94990024E140E855E2C4
:1009100060E070E081E00E946D170E94EB1080E0C3
:1009200090E0DF91CF910895CF93DF93CDB7DEB7FD
:100930008091E4059091E50501969093E5058093FB
:10094000E405DF91CF910895CF93DF9300D000D0DD
:10095000CDB7DEB79C838B831A8219820E94261141
:1009600080917B0590917C05009731F48AE791E0B6
:1009700090937C0580937B052091790530917A05D1
:100980008B819C81820F931F8F3F23E0920738F564
:100990002091790530917A058B819C81280F391F30
:1009A0008091790590917A0582179307C0F4209180
:1009B0007B0530917C058091790590917A05820FB5
:1009C000931F9A8389832091790530917A058B81D1
:1009D0009C81820F931F90937A05809379050E94E2
:1009E000321189819A810F900F900F900F90DF91B3
:1009F000CF910895CF93DF9300D0CDB7DEB79A8320
:100A000089830F900F90DF91CF910895CF93DF935B
:100A1000CDB7DEB728970FB6F894DEBF0FBECDBFB7
:100A20009C838B837E836D8358874F838B819C81CE
:100A300021E1FC0120838B819C8101979C838B8326
:100A40008B819C8122E2FC0120838B819C81019718
:100A50009C838B838B819C8123E3FC0120838B818E
:100A60009C8101979C838B838D819E819A8389834E
:100A700029818B819C81FC0120838B819C81019742
:100A80009C838B8389819A81892F99279A83898373
:100A900029818B819C81FC0120838B819C81019722
:100AA0009C838B838B819C81FC0110828B819C8138
:100AB00001979C838B838B819C8120E8FC012083A0
:100AC0008B819C8101979C838B838B819C81FC0112
:100AD00010828B819C8101979C838B838B819C816D
:100AE00022E0FC0120838B819C8101979C838B8376
:100AF0008B819C8123E0FC0120838B819C81019769
:100B00009C838B838B819C8124E0FC0120838B81DF
:100B10009C8101979C838B838B819C8125E0FC01C8
:100B200020838B819C8101979C838B838B819C810B
:100B300026E0FC0120838B819C8101979C838B8321
:100B40008B819C8127E0FC0120838B819C81019714
:100B50009C838B838B819C8128E0FC0120838B818B
:100B60009C8101979C838B838B819C8129E0FC0174
:100B700020838B819C8101979C838B838B819C81BB
:100B800020E1FC0120838B819C8101979C838B83D6
:100B90008B819C8121E1FC0120838B819C810197C9
:100BA0009C838B838B819C8122E1FC0120838B8140
:100BB0009C8101979C838B838B819C8123E1FC0129
:100BC00020838B819C8101979C838B838B819C816B
:100BD00024E1FC0120838B819C8101979C838B8382
:100BE0008B819C8125E1FC0120838B819C81019775
:100BF0009C838B838B819C8126E1FC0120838B81EC
:100C00009C8101979C838B838B819C8127E1FC01D4
:100C100020838B819C8101979C838B838B819C811A
:100C200028E1FC0120838B819C8101979C838B832D
:100C30008B819C8129E1FC0120838B819C81019720
:100C40009C838B838B819C8120E2FC0120838B81A0
:100C50009C8101979C838B838B819C8121E2FC0189
:100C600020838B819C8101979C838B838B819C81CA
:100C700022E2FC0120838B819C8101979C838B83E2
:100C80008B819C8123E2FC0120838B819C810197D5
:100C90009C838B838F8198859A83898329818B811B
:100CA0009C81FC0120838B819C8101979C838B8399
:100CB00089819A81892F99279A83898329818B81B8
:100CC0009C81FC0120838B819C8101979C838B8379
:100CD0008B819C8126E2FC0120838B819C81019782
:100CE0009C838B838B819C8127E2FC0120838B81F9
:100CF0009C8101979C838B838B819C8128E2FC01E2
:100D000020838B819C8101979C838B838B819C8129
:100D100029E2FC0120838B819C8101979C838B833A
:100D20008B819C8120E3FC0120838B819C81019736
:100D30009C838B838B819C8121E3FC0120838B81AD
:100D40009C8101979C838B838B819C8128960FB615
:100D5000F894DEBF0FBECDBFDF91CF910895CF9342
:100D6000DF93CDB7DEB70E949A07A0917D05B091C1
:100D70007E05CD91CDBFDD91DEBFFF91EF91DF917B
:100D8000CF91BF91AF919F918F917F916F915F9123
:100D90004F913F912F911F910F91FF90EF90DF9016
:100DA000CF90BF90AF909F908F907F906F905F900B
:100DB0004F903F902F901F900F900FBE0F9008956F
:100DC00081E0DF91CF9108950F920FB6F8940F92C2
:100DD0001F9211242F923F924F925F926F927F92B7
:100DE0008F929F92AF92BF92CF92DF92EF92FF923B
:100DF0000F931F932F933F934F935F936F937F9323
:100E00008F939F93AF93BF93CF93DF93EF93FF9312
:100E1000A0917D05B0917E050DB60D920EB60D9296
:100E20000E94CD12A0917D05B0917E05CD91CDBFE0
:100E3000DD91DEBFFF91EF91DF91CF91BF91AF9137
:100E40009F918F917F916F915F914F913F912F91E2
:100E50001F910F91FF90EF90DF90CF90BF90AF90D8
:100E60009F908F907F906F905F904F903F902F90CA
:100E70001F900F900FBE0F9008950F920FB6F89429
:100E80000F921F9211242F923F924F925F926F9276
:100E90007F928F929F92AF92BF92CF92DF92EF920A
:100EA000FF920F931F932F933F934F935F936F93F3
:100EB0007F938F939F93AF93BF93CF93DF93EF93E2
:100EC000FF93A0917D05B0917E050DB60D920EB6F3
:100ED0000D920E94D711882311F00E94CD12A0918B
:100EE0007D05B0917E05CD91CDBFDD91DEBFFF9137
:100EF000EF91DF91CF91BF91AF919F918F917F91B2
:100F00006F915F914F913F912F911F910F91FF90A2
:100F1000EF90DF90CF90BF90AF909F908F907F9099
:100F20006F905F904F903F902F901F900F900FBE4B
:100F30000F900895CF93DF93CDB7DEB72A970FB602
:100F4000F894DEBF0FBECDBF80E990EDA3E0B0E026
:100F500089839A83AB83BC8389819A81AB81BC816D
:100F600028EE33E040E050E0BC01CD010E94121AAF
:100F7000DA01C90189839A83AB83BC8389819A8111
:100F8000AB81BC810197A109B10989839A83AB83A5
:100F9000BC8389818D8389819A81AB81BC81892FB2
:100FA0009A2FAB2FBB2789839A83AB83BC8389811C
:100FB0008E8389E890E02E81FC01208388E890E010
:100FC0002D81FC0120838BE08D8381E890E02D81D1
:100FD000FC0120838FE690E0FC0180818D838D8170
:100FE00082608D838FE690E02D81FC0120832A961C
:100FF0000FB6F894DEBF0FBECDBFDF91CF9108953D
:101000000E943D071895CF93DF9300D0CDB7DEB790
:101010009A83898389819A819C012D5F3F4F8981C1
:101020009A81FC013283218389819A812FEF3FEFDE
:10103000FC013483238389819A819C012D5F3F4F7A
:1010400089819A81FC013683258389819A819C015B
:101050002D5F3F4F89819A81FC01308727838981E9
:101060009A81FC0110820F900F90DF91CF9108952B
:10107000CF93DF9300D0CDB7DEB79A838983898180
:101080009A81FC01118610860F900F90DF91CF910D
:101090000895CF93DF9300D000D000D0CDB7DEB756
:1010A0009C838B837E836D838B819C81FC018181FA
:1010B00092819A8389838D819E8129813A81FC0165
:1010C0003383228389819A81FC01248135818D813A
:1010D0009E81FC013583248389819A81FC0184816E
:1010E00095812D813E81FC013383228389819A8100
:1010F0002D813E81FC01358324838D819E812B814E
:101100003C81FC01318720878B819C81FC0180819F
:1011100021E0280F8B819C81FC01208326960FB64D
:10112000F894DEBF0FBECDBFDF91CF910895CF936E
:10113000DF93CDB7DEB728970FB6F894DEBF0FBEAA
:10114000CDBF9E838D8378876F838F819885FC01C7
:10115000808191819C838B838B819C818F3FFFEF6A
:101160009F0741F48D819E81FC01878190859A8340
:1011700089831AC08D819E8103969A83898307C0D3
:1011800089819A81FC01828193819A8389838981F3
:101190009A81FC0182819381FC01208131818B81C4
:1011A0009C818217930760F789819A81FC012281D3
:1011B00033818F819885FC01338322838F819885C9
:1011C000FC01828193812F813885FC013583248342
:1011D0008F81988529813A81FC0135832483898117
:1011E0009A812F813885FC01338322838F819885F2
:1011F0002D813E81FC01318720878D819E81FC01FC
:10120000808121E0280F8D819E81FC01208328961A
:101210000FB6F894DEBF0FBECDBFDF91CF9108951A
:10122000CF93DF9300D000D0CDB7DEB79C838B8304
:101230008B819C81FC01808591859A8389838B8138
:101240009C81FC01828193812B813C81F901248165
:101250003581FC01358324838B819C81FC01848151
:1012600095812B813C81F90122813381FC013383FB
:10127000228389819A81FC01218132818B819C8129
:101280002817390751F48B819C81FC012481358119
:1012900089819A81FC01328321838B819C81FC01AD
:1012A0001186108689819A81FC0180812FEF280F99
:1012B00089819A81FC01208389819A81FC01808146
:1012C0000F900F900F900F90DF91CF910895CF93D3
:1012D000DF9300D000D01F92CDB7DEB79C838B8305
:1012E0006D838B819C819A8389830FB6F8940F92CA
:1012F00089819A81FC012081318189819A81FC0157
:10130000838D682F70E089819A81FC01848D482F3C
:1013100050E0649FC001659F900D749F900D112453
:10132000280F391F89819A81FC01338322838981A7
:101330009A81FC01128E89819A81FC012081318180
:1013400089819A81FC013583248389819A81FC01FA
:101350002081318189819A81FC01838D882F90E0E1
:10136000BC016150710989819A81FC01848D482FEB
:1013700050E0649FC001659F900D749F900D1124F3
:10138000280F391F89819A81FC013783268389813F
:101390009A812FEFFC01258F89819A812FEFFC0123
:1013A000268F8D81882381F489819A81FC01808533
:1013B0008823A1F089819A8108960E948213813046
:1013C00069F40E94E4060AC089819A8108960E9405
:1013D000030889819A8141960E9403080F900FBEED
:1013E00081E00F900F900F900F900F90DF91CF91B1
:1013F0000895CF93DF93CDB7DEB729970FB6F89452
:10140000DEBF0FBECDBF8F83688749871A821982DE
:101410008F81882309F443C08FE190E00E94A404E7
:101420009C838B838B819C810097C9F18F81482F8E
:1014300050E08885282F30E0429FC001439F900DE7
:10144000529F900D112401969E838D838D819E81E4
:101450000E94A4049C018B819C81FC013183208328
:101460008B819C81FC01808191810097A1F08B810F
:101470009C812F81FC01238F8B819C812885FC011D
:10148000248F8B819C8161E00E9467098B819C8104
:101490009A83898304C08B819C810E94FA0489818C
:1014A0009A8129960FB6F894DEBF0FBECDBFDF91AB
:1014B000CF910895CF93DF93CDB7DEB72E970FB6B8
:1014C000F894DEBF0FBECDBF998788877B876A8778
:1014D0005D874C872E871982888599859B838A83AF
:1014E0000FB6F8940F928A819B81FC01228D8A812C
:1014F0009B81FC01838D281718F08E85823011F5B1
:101500002A853B858A819B814E85B9010E94A70C63
:101510008C838A819B81FC018189882351F08A8197
:101520009B8141960E948213813041F40E94E4061F
:1015300005C08C81882311F00E94E4060F900FBE35
:1015400081E061C08C859D85009721F40F900FBECE
:1015500080E059C08981882331F4CE0105960E942C
:10156000EF1381E089830F900FBE0E9426110FB602
:10157000F8940F928A819B81FC01858D8F3F21F425
:101580008A819B81FC01158E8A819B81FC01868D5D
:101590008F3F21F48A819B81FC01168E0F900FBE34
:1015A0009E01245F3F4FCE010596B9010E940A14A7
:1015B000882301F58A819B810E94390E882399F046
:1015C0002C853D858A819B810896B9010E943C1338
:1015D0008A819B810E94B70D0E943211882391F469
:1015E0000E94E4060FC08A819B810E94B70D0E9471
:1015F000321176CF8A819B810E94B70D0E943211F1
:1016000080E001C06DCF2E960FB6F894DEBF0FBEFE
:10161000CDBFDF91CF910895CF93DF93CDB7DEB7E4
:101620002B970FB6F894DEBF0FBECDBF9E838D8380
:1016300078876F835A8749872B878D819E819B830B
:101640008A831C828A819B81FC01228D8A819B81F5
:10165000FC01838D281718F08B858230E9F52F81E6
:1016600038858A819B814B85B9010E94A70C88230C
:1016700049F089859A85009729F089859A8521E026
:10168000FC0120838A819B81FC01868D8F3FB9F408
:101690008A819B81FC0181898823D9F08A819B8181
:1016A00041960E9482138823A1F089859A8500972C
:1016B00081F089859A8521E0FC0120830AC08A8116
:1016C0009B81FC01868D21E0280F8A819B81FC0192
:1016D000268F81E0898301C0198289812B960FB6FC
:1016E000F894DEBF0FBECDBFDF91CF910895CF93A9
:1016F000DF93CDB7DEB72F970FB6F894DEBF0FBEDE
:10170000CDBF9A8789877C876B875E874D872F87B8
:10171000198289859A859B838A830FB6F8940F92E4
:101720008A819B81FC01828D882309F445C08A81CE
:101730009B81FC01868197819D838C832B853C85D1
:101740008A819B81B9010E94670D8F858823D1F41E
:101750008A819B81FC01828D2FEF280F8A819B81DA
:10176000FC01228F8A819B81FC018085882301F105
:101770008A819B8108960E9482138130C9F40E945D
:10178000E40616C08A819B812C813D81FC01378350
:1017900026838A819B81FC018189882349F08A8183
:1017A0009B8141960E948213882311F00E94E406D7
:1017B0000F900FBE81E061C08D859E85009721F45A
:1017C0000F900FBE80E059C08981882331F4CE018B
:1017D00006960E94EF1381E089830F900FBE0E944E
:1017E00026110FB6F8940F928A819B81FC01858D9A
:1017F0008F3F21F48A819B81FC01158E8A819B8118
:10180000FC01868D8F3F21F48A819B81FC01168E1D
:101810000F900FBE9E01235F3F4FCE010696B90188
:101820000E940A14882301F58A819B810E941B0E65
:10183000882399F02D853E858A819B814196B90147
:101840000E943C138A819B810E94B70D0E94321135
:10185000882391F40E94E4060FC08A819B810E9434
:10186000B70D0E94321159CF8A819B810E94B70D1A
:101870000E94321180E001C050CF2F960FB6F8942D
:10188000DEBF0FBECDBFDF91CF910895CF93DF9321
:10189000CDB7DEB72A970FB6F894DEBF0FBECDBF27
:1018A0009E838D8378876F835A8749878D819E8138
:1018B0009B838A831C828A819B81FC01828D882381
:1018C000D9F12F8138858A819B81B9010E94670DEA
:1018D0008A819B81FC01828D2FEF280F8A819B8159
:1018E000FC01228F8A819B81FC01858D8F3FB9F499
:1018F0008A819B81FC0180858823D9F08A819B8124
:1019000008960E9482138823A1F089859A85009702
:1019100081F089859A8521E0FC0120830AC08A81B3
:101920009B81FC01858D21E0280F8A819B81FC0130
:10193000258F81E0898301C0198289812A960FB69B
:10194000F894DEBF0FBECDBFDF91CF910895CF9346
:10195000DF9300D000D000D0CDB7DEB79B838A8361
:101960007D836C834E8319828A819B81FC01848DE7
:10197000882309F498C08E818823D9F58A819B81B8
:10198000FC01848D482F50E08A819B81FC01848179
:1019900095812C813D81B9010E94341A8A819B81F5
:1019A000FC01248135818A819B81FC01848D882FF3
:1019B00090E0280F391F8A819B81FC0135832483A5
:1019C0008A819B81FC01248135818A819B81FC0174
:1019D000828193812817390708F465C08A819B8129
:1019E000FC01208131818A819B81FC013583248324
:1019F0005AC08A819B81FC01848D482F50E08A81E6
:101A00009B81FC01868197812C813D81B9010E94D7
:101A1000341A8A819B81FC01268137818A819B81CE
:101A2000FC01848D882F90E0919581959109280F74
:101A3000391F8A819B81FC01378326838A819B81A0
:101A4000FC01268137818A819B81FC018081918103
:101A500028173907A8F48A819B81FC0122813381F0
:101A60008A819B81FC01848D882F90E091958195DE
:101A70009109280F391F8A819B81FC0137832683B6
:101A80008E81823081F48A819B81FC01828D882342
:101A900051F08A819B81FC01828D2FEF280F8A8172
:101AA0009B81FC01228F8A819B81FC01828D21E038
:101AB000280F8A819B81FC01228F898126960FB68F
:101AC000F894DEBF0FBECDBFDF91CF910895CF93C5
:101AD000DF9300D000D0CDB7DEB79A8389837C83B3
:101AE0006B8389819A81FC01848D8823C9F1898166
:101AF0009A81FC012681378189819A81FC01848D3C
:101B0000882F90E0280F391F89819A81FC01378343
:101B1000268389819A81FC012681378189819A8176
:101B2000FC01828193812817390750F089819A81BD
:101B3000FC012081318189819A81FC0137832683D0
:101B400089819A81FC01848D482F50E089819A8196
:101B5000FC01268137818B819C81B9010E94341A56
:101B60000F900F900F900F90DF91CF910895CF932A
:101B7000DF9300D0CDB7DEB79A8389830FB6F89490
:101B80000F921BC089819A81FC018189882351F0C1
:101B900089819A8141960E948213882321F00E94B4
:101BA0007D1401C010C089819A81FC01868D2FEFC0
:101BB000280F89819A81FC01268F89819A81FC01F5
:101BC000868D1816FCF289819A812FEFFC01268FF1
:101BD0000F900FBE0FB6F8940F921BC089819A81A7
:101BE000FC0180858823A1F089819A8108960E9452
:101BF0008213882311F00E947D1489819A81FC014F
:101C0000858D2FEF280F89819A81FC01258F01C0D6
:101C100006C089819A81FC01858D1816FCF28981A4
:101C20009A812FEFFC01258F0F900FBE0F900F9020
:101C3000DF91CF910895CF93DF9300D01F92CDB75E
:101C4000DEB79B838A830FB6F8940F928A819B81BB
:101C5000FC01828D882319F481E0898301C01982F7
:101C60000F900FBE89810F900F900F90DF91CF9151
:101C70000895CF93DF9300D01F92CDB7DEB79B833B
:101C80008A830FB6F8940F928A819B81FC01228D82
:101C90008A819B81FC01838D281719F481E0898357
:101CA00001C019820F900FBE89810F900F900F9085
:101CB000DF91CF910895AF92BF92CF92DF92EF92D2
:101CC000FF920F931F93CF93DF93CDB7DEB7649747
:101CD0000FB6F894DEBF0FBECDBF9F838E8379878A
:101CE00068875B874A873D872C870E87F88AEF864F
:101CF000DA8AC98ABC8AAB8A29893A898A859B850E
:101D0000B9010E94DB159B838A838A819B8100979E
:101D100009F491C08A819B81FC012789308D8A85D5
:101D20009B850197820F931F9D838C834A855B85DA
:101D30002B893C89688579858A819B818A014E85BA
:101D40000E9497144C855D852E813F818C819D81F9
:101D5000B9010E9406059C018A819B81FC013183A7
:101D600020838F859889009739F08F8598892A81FB
:101D70003B81FC01318320830FB6F8940F92809150
:101D8000D5058F5F8093D50580917D0590917E0567
:101D9000009769F48A819B8190937E0580937D05ED
:101DA0008091D5058130B1F40E94101513C0809147
:101DB000D905882379F480917D0590917E05FC01F9
:101DC00096898E85891730F08A819B8190937E0554
:101DD00080937D058091DD058F5F8093DD058A818D
:101DE0009B81FC0196898091D805891730F48A81FE
:101DF0009B81FC0186898093D8058A819B81AC01F7
:101E00004E5F5F4F8A819B81FC018689282F30E0DD
:101E1000C901880F991F880F991F880F991F820F7A
:101E2000931F81589A4FBA010E94490881E0898323
:101E30000F900FBE02C08FEF89838981813079F4C2
:101E40008091D905882359F080917D0590917E0578
:101E5000FC0196898E85981710F40E94E40689810A
:101E600064960FB6F894DEBF0FBECDBFDF91CF9161
:101E70001F910F91FF90EF90DF90CF90BF90AF90A8
:101E80000895CF93DF93CDB7DEB72A970FB6F894B6
:101E9000DEBF0FBECDBF98878F837A87698719828F
:101EA0000E9426118091D6059091D7059B838A8345
:101EB0008F819885FC012081318189859A85820FE7
:101EC000931F9D838C838F819885FC0120813181B4
:101ED0008A819B8182179307A0F48F819885FC01EA
:101EE000208131818C819D8182179307E8F42C81B8
:101EF0003D818A819B8182179307B0F481E08983B9
:101F000013C08F819885FC01208131818C819D8156
:101F10008217930738F02C813D818A819B8182173B
:101F2000930710F481E089838F8198852C813D810E
:101F3000FC01318320838981882359F080917D05BC
:101F400090917E0502960E9410098C819D810E94CD
:101F500091150E9432118E838E81882311F40E9484
:101F6000E4062A960FB6F894DEBF0FBECDBFDF9110
:101F7000CF910895CF93DF9300D000D01F92CDB7BB
:101F8000DEB79D838C8319828C819D810097D1F06F
:101F90000E9426112091D6053091D7058C819D8114
:101FA000820F931F9B838A8380917D0590917E058C
:101FB00002960E9410098A819B810E9491150E94BD
:101FC000321189838981882311F40E94E4060F90DD
:101FD0000F900F900F900F90DF91CF910895CF93B6
:101FE000DF9300D000D0CDB7DEB79C838B830FB6D4
:101FF000F8940F928B819C81009729F480917D0544
:1020000090917E0502C08B819C819A83898389810E
:102010009A8102960E94100989819A81FC01848923
:102020009589009729F089819A810C960E94100960
:1020300089819A810296BC018CEC95E00E94490846
:102040000F900FBE80917D0590917E0529813A8188
:1020500028173907A9F48091D905882319F00E941F
:10206000E40619C09091CC058091D505981729F404
:1020700010927E0510927D050EC00E94CD120BC0FD
:102080008091D905882339F00FB6F8940F920E94F9
:102090003C160F900FBE0F900F900F900F90DF9196
:1020A000CF910895CF93DF9300D000D01F92CDB78A
:1020B000DEB79D838C8319828C819D819B838A836B
:1020C0008A819B81FC0182859385F5E08C3C9F078A
:1020D00091F48A819B81FC0184899589F5E0893B93
:1020E0009F0749F08A819B81FC018489958900972B
:1020F00011F481E0898389810F900F900F900F90E8
:102100000F90DF91CF910895CF93DF9300D000D04F
:10211000CDB7DEB79C838B838B819C819A83898327
:1021200089819A81009709F44FC080917D05909133
:102130007E0529813A812817390709F445C00FB671
:10214000F8940F9289819A810E9452108130D1F5C2
:1021500089819A8102960E94100989819A81FC01E5
:1021600096898091D805891730F489819A81FC017C
:1021700086898093D80589819A81AC014E5F5F4F33
:1021800089819A81FC018689282F30E0C901880F56
:10219000991F880F991F880F991F820F931F8158CD
:1021A0009A4FBA010E94490889819A81FC012689C7
:1021B00080917D0590917E05FC018689281710F09D
:1021C0000E94E4060F900FBE0F900F900F900F909B
:1021D000DF91CF910895AF92BF92CF92DF92EF92AD
:1021E000FF920F93CF93DF931F92CDB7DEB7A12C51
:1021F000B12CC12CD12CE12CF12C00E020E030E0FE
:1022000045E550E068E671E087E894E10E945B0EE6
:1022100089838981813079F4F89481E08093D905AC
:102220001092D7051092D6050E94AF06882319F0A8
:1022300081E08093D9050F90DF91CF910F91FF90AE
:10224000EF90DF90CF90BF90AF900895CF93DF9342
:10225000CDB7DEB78091DE058F5F8093DE05DF911D
:10226000CF910895CF93DF9300D01F92CDB7DEB703
:1022700019820FB6F8940F928091DE0581508093F9
:10228000DE058091DE05882309F071C08091D505B7
:10229000882309F46CC049C08091BE059091BF05A8
:1022A000FC01868197819B838A838A819B810C961E
:1022B0000E9410098A819B8102960E9410098A81DE
:1022C0009B81FC0196898091D805891730F48A8119
:1022D0009B81FC0186898093D8058A819B81AC0112
:1022E0004E5F5F4F8A819B81FC018689282F30E0F9
:1022F000C901880F991F880F991F880F991F820F96
:10230000931F81589A4FBA010E9449088A819B8184
:10231000FC01268980917D0590917E05FC018689CE
:10232000281718F081E08093DB058091B905882398
:1023300009F0B2CF8091DA05882389F00CC00E94A1
:10234000D711882319F081E08093DB058091DA05AD
:1023500081508093DA058091DA05882381F7809196
:10236000DB05813021F481E089830E94E4060F902F
:102370000FBE89810F900F900F90DF91CF9108953C
:10238000CF93DF9300D0CDB7DEB70FB6F8940F929E
:102390008091D6059091D7059A8389830F900FBEBF
:1023A00089819A810F900F90DF91CF910895CF93FB
:1023B000DF93CDB7DEB729970FB6F894DEBF0FBE17
:1023C000CDBF19828091DE05882309F0CFC08091AE
:1023D000D6059091D70501969093D7058093D605A1
:1023E0008091D6059091D7059B838A838A819B81B2
:1023F0000097D9F48091B5059091B6059D838C83A3
:102400008091B7059091B8059093B6058093B50576
:102410008C819D819093B8058093B7058091DC05F0
:102420008F5F8093DC050E943C1680910D01909196
:102430000E012A813B812817390708F477C0809163
:10244000B5059091B605FC018081882339F48FEFA2
:102450009FEF90930E0180930D0168C08091B505A8
:102460009091B605FC0185819681FC01868197815A
:102470009F838E838E819F81FC01828193819987C6
:1024800088872A813B81888599852817390738F400
:102490008885998590930E0180930D0147C08E81A8
:1024A0009F8102960E9410098E819F81FC01848980
:1024B0009589009729F08E819F810C960E941009C2
:1024C0008E819F81FC0196898091D805891730F40F
:1024D0008E819F81FC0186898093D8058E819F81A2
:1024E000AC014E5F5F4F8E819F81FC018689282F52
:1024F00030E0C901880F991F880F991F880F991F15
:10250000820F931F81589A4FBA010E9449088E8109
:102510009F81FC01268980917D0590917E05FC01BB
:102520008689281710F081E0898389CF80917D0505
:1025300090917E05FC018689282F30E0C901880F23
:10254000991F880F991F880F991F820F931F815819
:102550009A4FFC018081823010F081E08983809164
:10256000DA05882351F40E94940407C08091DA05AB
:102570008F5F8093DA050E9494048091DB058823A5
:1025800011F081E08983898129960FB6F894DEBF26
:102590000FBECDBFDF91CF910895CF93DF9300D0D1
:1025A000CDB7DEB78091DE05882321F081E08093EE
:1025B000DB055DC01092DB0505C08091D805815018
:1025C0008093D8058091D805282F30E0C901880F65
:1025D000991F880F991F880F991F820F931F815889
:1025E0009A4FFC018081882341F38091D805282FE0
:1025F00030E0C901880F991F880F991F880F991F14
:10260000820F931F81589A4F9A83898389819A8177
:10261000FC0181819281FC012281338189819A812F
:10262000FC013283218389819A81FC0121813281DD
:1026300089819A8103962817390769F489819A81DB
:10264000FC0181819281FC012281338189819A81FF
:10265000FC013283218389819A81FC0181819281ED
:10266000FC018681978190937E0580937D050F9074
:102670000F90DF91CF910895CF93DF9300D000D0DA
:1026800000D0CDB7DEB79C838B837E836D83809132
:102690007D0590917E059C01245F3F4F8B819C813D
:1026A000B9010E94970880917D0590917E05029660
:1026B0000E9410098D819E818F3F2FEF920759F460
:1026C00080917D0590917E050296BC018CEC95E091
:1026D0000E9449080EC02091D6053091D7058D8102
:1026E0009E81820F931F9A83898389819A810E9498
:1026F000911526960FB6F894DEBF0FBECDBFDF91C1
:10270000CF910895CF93DF9300D000D01F92CDB723
:10271000DEB79D838C838C819D81FC0185819681B0
:10272000FC01868197819B838A838A819B810C9699
:102730000E9410098091DE05882369F58A819B81BA
:1027400002960E9410098A819B81FC0196898091E2
:10275000D805891730F48A819B81FC018689809392
:10276000D8058A819B81AC014E5F5F4F8A819B8136
:10277000FC018689282F30E0C901880F991F880F36
:10278000991F880F991F820F931F81589A4FBA0182
:102790000E94490808C08A819B810C96BC0189EB84
:1027A00095E00E9449088A819B81FC0126898091DD
:1027B0007D0590917E05FC018689821730F481E0C9
:1027C000898381E08093DB0501C0198289810F90A4
:1027D0000F900F900F900F90DF91CF910895CF93AE
:1027E000DF9300D0CDB7DEB79A8389832091DC05D3
:1027F00089819A81FC0120832091D6053091D705EB
:1028000089819A81FC01328321830F900F90DF919F
:10281000CF910895CF93DF93CDB7DEB727970FB64B
:10282000F894DEBF0FBECDBF9D838C837F836E8304
:102830000FB6F8940F928091D6059091D7059B839F
:102840008A838E819F81FC01808191818F3FFFEF80
:102850009F0711F4198245C08C819D81FC019081F4
:102860008091DC05981769F08C819D81FC012181A4
:1028700032818A819B818217930718F081E08983D6
:1028800030C08C819D81FC01818192812A813B81B4
:10289000281B390B8E819F81FC0180819181281733
:1028A0003907E8F48E819F81FC01208131818C8180
:1028B0009D81FC01418152818A819B81BA01681B03
:1028C000790BCB01280F391F8E819F81FC01318349
:1028D00020838C819D810E94EF13198202C081E0C8
:1028E00089830F900FBE898127960FB6F894DEBFBB
:1028F0000FBECDBFDF91CF910895CF93DF93CDB7BA
:10290000DEB781E08093DB05DF91CF910895CF930F
:10291000DF9300D0CDB7DEB79A8389830E9451152B
:1029200080917F05823010F00E94E406F7CF0F936C
:102930001F93CF93DF93CDB7DEB72A970FB6F894E6
:10294000DEBF0FBECDBF9B838A837D836C834E83A6
:1029500038872F831A870987198222C08981882F97
:1029600090E02981222F30E04C815D81240F351FBA
:10297000F90140812A813B81820F931F4996FC0116
:1029800040838981882F90E02C813D81820F931FA5
:10299000FC018081882309F406C089818F5F8983C7
:1029A00089818430D8F28A819B81FC01148E8E81CA
:1029B000843010F083E08E838A819B812E81FC011C
:1029C000268B8A819B8102960E9438088A819B818E
:1029D0000C960E9438088A819B812A813B81FC01E8
:1029E000318720878E81882F90E024E030E0281BFB
:1029F000390B8A819B81FC01358724878A819B81E1
:102A00002A813B81FC01338B228B2A960FB6F894E6
:102A1000DEBF0FBECDBFDF91CF911F910F91089503
:102A2000CF93DF931F92CDB7DEB7198213C0898190
:102A3000282F30E0C901880F991F880F991F880F30
:102A4000991F820F931F81589A4F0E940308898112
:102A50008F5F89838981843050F383EA95E00E94F7
:102A600003088CEA95E00E94030889EB95E00E9438
:102A7000030882EC95E00E9403088CEC95E00E942C
:102A8000030883EA95E09093B6058093B5058CEA38
:102A900095E09093B8058093B7050F90DF91CF91A3
:102AA0000895CF93DF9300D01F92CDB7DEB72FC02C
:102AB0000E9426119091C20581E0992309F080E0DF
:102AC00089830E9432118981882309F50FB6F89411
:102AD0000F928091C7059091C805FC01868197816E
:102AE0009B838A838A819B8102960E941009809130
:102AF000D50581508093D5058091CB058150809379
:102B0000CB050F900FBE8A819B810E942516809174
:102B1000CB05882369F60F900F900F90DF91CF912E
:102B20000895CF93DF9300D0CDB7DEB79A83898322
:102B300080917D0590917E0529813A81FC01338346
:102B400022838091D6059091D70529813A81281753
:102B5000390778F480917D0590917E059C012E5F68
:102B60003F4F8091B7059091B805B9010E94970831
:102B70001DC080917D0590917E059C012E5F3F4F89
:102B80008091B5059091B605B9010E949708809192
:102B90000D0190910E0129813A812817390730F4EF
:102BA00089819A8190930E0180930D010F900F906F
:102BB000DF91CF910895CF93DF9300D000D000D064
:102BC000CDB7DEB79C838B837E836D838DE190E0F0
:102BD0000E94A4049A83898389819A81009751F184
:102BE0008D819E81009729F48B819C810E94A40491
:102BF00002C08D819E8129813A81F901908F878B56
:102C000089819A81FC018789908D009739F48981A7
:102C10009A810E94FA041A8219820CC089819A81D1
:102C2000FC018789908D2B813C81A90165EA70E0C8
:102C30000E943D1A89819A8126960FB6F894DEBFCC
:102C40000FBECDBFDF91CF910895CF93DF9300D01A
:102C5000CDB7DEB79A83898389819A81FC01878900
:102C6000908D0E94FA0489819A810E94FA040F9043
:102C70000F90DF91CF910895CF93DF9300D0CDB720
:102C8000DEB78091B5059091B605FC01808188235F
:102C900039F48FEF9FEF90930E0180930D0115C0D3
:102CA0008091B5059091B605FC0185819681FC0166
:102CB000868197819A83898389819A81FC018281A7
:102CC000938190930E0180930D010F900F90DF91EF
:102CD000CF910895AF92BF92CF92DF92EF92FF9281
:102CE0000F93CF93DF931F92CDB7DEB78983A12CCB
:102CF000B12CC12CD12C0F2EF8EEEF2EF5E0FF2ECB
:102D0000F02D098120E030E04AEA50E06DE671E004
:102D100087E996E10E945B0E0F90DF91CF910F91B2
:102D2000FF90EF90DF90CF90BF90AF900895CF933A
:102D3000DF93CDB7DEB727970FB6F894DEBF0FBE8F
:102D4000CDBF9F838E8382E089838981882F90E025
:102D5000AC014F5F5F4F2DE431E0429FC001439FC4
:102D6000900D529F900D11249B838A838A819B81B1
:102D7000969587959B838A830E94C0119D838C833F
:102D80002091EA053091EB05CE010496B9010E942D
:102D9000410F89810E9435172091EA053091EB059A
:102DA000CE010496B9010E94410F89810E94351716
:102DB000E7CFCF93DF93CDB7DEB71092DF0587E281
:102DC00090E02FE3FC01208388E290E027E0FC0103
:102DD00020838AE290E02CE1FC01208384E290E0F1
:102DE000FC01108285E290E0FC011082DF91CF911E
:102DF0000895CF93DF9300D01F92CDB7DEB78A83BB
:102E00006B8381E089838A81883048F58981882FA6
:102E100090E02A81222F30E002C0880F991F2A9566
:102E2000E2F789830E9426118B81813039F49091D9
:102E3000DF058981892B8093DF0509C08981809511
:102E400089839091DF05898189238093DF058BE257
:102E500090E02091DF05FC0120830E9432110F9049
:102E60000F900F90DF91CF910895CF93DF9300D013
:102E7000CDB7DEB78A838A81883050F58A81282FC2
:102E800030E081E090E002C0880F991F2A95E2F7B8
:102E900089830E9426119091DF05898189238823E7
:102EA00049F08981982F90958091DF05892380933F
:102EB000DF0506C09091DF058981892B8093DF05AE
:102EC0008BE290E02091DF05FC0120830E9432110B
:102ED0000F900F90DF91CF910895AF92BF92CF9254
:102EE000DF92EF92FF920F93CF93DF9300D000D049
:102EF00000D0CDB7DEB789834A835B836C837D8343
:102F00002E838A819B81AC81BD8144E0BC01CD01CF
:102F10000E940603A12CB12CC12CD12C0F2EF1EF55
:102F2000EF2EF5E0FF2EF02D098120E030E04AEA97
:102F300050E06FE671E08FEA97E10E945B0E269603
:102F40000FB6F894DEBF0FBECDBFDF91CF910F91CA
:102F5000FF90EF90DF90CF90BF90AF900895CF9308
:102F6000DF9300D01F92CDB7DEB79B838A8367E0E3
:102F700070E080E191E00E94221866E170E087E154
:102F800091E00E9422186CE170E08DE291E00E94D5
:102F9000221869E170E089E491E00E942218809192
:102FA000E0059091E1054FEF5FEF9E012F5F3F4FEE
:102FB000B9010E948203882309F443C0809108016B
:102FC000873078F580910801882359F1898182370B
:102FD00019F08981823569F480910F018E3441F4B2
:102FE00082E780930F011092E5051092E40512C06C
:102FF00011C08981833719F08981833559F4809113
:103000000F01823539F483E780930F011092E505B3
:103010001092E4058091E2059091E3050E948410EE
:1030200010C088E290E020910701FC01208383E337
:1030300091E09093EB058093EA058EE480930F0175
:10304000AECFADCFCF93DF9300D000D000D0CDB7BF
:10305000DEB79C838B837E836D831A82198220C0A6
:1030600081E090E00E94BA0F89819A812B813C8196
:10307000820F931FFC018081282F8091E0059091A1
:10308000E10540E050E0622F0E94A803813019F46E
:1030900086E00E94351789819A8101969A838983F7
:1030A00029813A818D819E8128173907CCF260E011
:1030B00086E00E94F91626960FB6F894DEBF0FBE82
:1030C000CDBFDF91CF9108955058BB27AA270ED0CE
:1030D00008C1F9D030F0FED020F031F49F3F11F458
:1030E0001EF4EEC00EF4E095E7FBE4C0E92F0AD130
:1030F00080F3BA17620773078407950718F071F415
:103100009EF522C10EF4E0950B2EBA2FA02D0B01D7
:10311000B90190010C01CA01A0011124FF27591B1C
:1031200099F0593F50F4503E68F11A16F040A22F22
:10313000232F342F4427585FF3CF46953795279593
:10314000A795F0405395C9F77EF41F16BA0B620B92
:10315000730B840BBAF09150A1F0FF0FBB1F661FD9
:10316000771F881FC2F70EC0BA0F621F731F841F1C
:1031700048F4879577956795B795F7959E3F08F042
:10318000B3CF9395880F08F09927EE0F9795879501
:1031900008956CD008F481E00895BCD088F09F5762
:1031A00090F0B92F9927B751A0F0D1F0660F771F93
:1031B000881F991F1AF0BA95C9F712C0B13081F073
:1031C000C3D0B1E00895C0C0672F782F8827B85FBB
:1031D00039F0B93FCCF3869577956795B395D9F7D4
:1031E0003EF490958095709561957F4F8F4F9F4FDE
:1031F0000895E89409C097FB3EF4909580957095EA
:1032000061957F4F8F4F9F4F9923A9F0F92F96E932
:10321000BB279395F695879577956795B795F111A7
:10322000F8CFFAF4BB0F11F460FF1BC06F5F7F4F44
:103230008F4F9F4F16C0882311F096E911C0772356
:1032400021F09EE8872F762F05C0662371F096E85F
:10325000862F70E060E02AF09A95660F771F881F2E
:10326000DAF7880F9695879597F90895990F0008D2
:10327000550FAA0BE0E8FEEF16161706E807F90748
:10328000C0F012161306E407F50798F0621B730BE3
:10329000840B950B39F40A2661F0232B242B252B64
:1032A00021F408950A2609F4A140A6958FEF811D07
:1032B000811D089597F99F6780E870E060E00895A8
:1032C0009FEF80EC089500240A941616170618063E
:1032D0000906089500240A9412161306140605061A
:1032E0000895092E0394000C11F4882352F0BB0FAB
:1032F00040F4BF2B11F460FF04C06F5F7F4F8F4F0E
:103300009F4F089557FD9058440F551F59F05F3F48
:1033100071F04795880F97FB991F61F09F3F79F0F7
:1033200087950895121613061406551FF2CF469579
:10333000F1DF08C0161617061806991FF1CF8695FB
:103340007105610508940895E894BB2766277727DF
:10335000CB0197F908958ADF08F48FEF08950BD019
:10336000C0CFB1DF28F0B6DF18F0952309F0A2CF67
:10337000A7CF1124EACFC6DFA0F3959FD1F3950F15
:1033800050E0551F629FF001729FBB27F00DB11DE9
:10339000639FAA27F00DB11DAA1F649F6627B00D79
:1033A000A11D661F829F2227B00DA11D621F739F62
:1033B000B00DA11D621F839FA00D611D221F749F70
:1033C0003327A00D611D231F849F600D211D822FB7
:1033D000762F6A2F11249F5750408AF0E1F08823FE
:1033E0004AF0EE0FFF1FBB1F661F771F881F91500B
:1033F0005040A9F79E3F510570F05CCFA6CF5F3FCC
:10340000ECF3983EDCF3869577956795B795F7953D
:10341000E7959F5FC1F7FE2B880F911D96958795C5
:1034200097F90895A1E21A2EAA1BBB1BFD010DC03E
:10343000AA1FBB1FEE1FFF1FA217B307E407F50764
:1034400020F0A21BB30BE40BF50B661F771F881F40
:10345000991F1A9469F760957095809590959B01D6
:10346000AC01BD01CF010895FB01DC0102C0019058
:103470000D9241505040D8F70895DC0101C06D9382
:0C34800041505040E0F70895F894FFCF51
:10348C003F260D2513160B3FFF7B14AE3DFFFF4E61
:10349C001B5B324A1B5B482323204C6967687420F2
:1034AC004261737469616E2052544F530A523A2030
:1034BC0052756E09533A2053746F702028526573FD
:1034CC006574732050574D290A2B3A20537065654B
:1034DC0064205550092D3A20536C6F7720446F7738
:1034EC006E0A4D0052004E0049444C45004C0054AD
:0434FC000025640043
:00000001FF
